{
	"UserInfo.sol": {
		"UserInfo": {
			"abi": [
				{
					"inputs": [],
					"stateMutability": "nonpayable",
					"type": "constructor"
				},
				{
					"anonymous": false,
					"inputs": [
						{
							"indexed": true,
							"internalType": "address",
							"name": "previousOwner",
							"type": "address"
						},
						{
							"indexed": true,
							"internalType": "address",
							"name": "newOwner",
							"type": "address"
						}
					],
					"name": "OwnershipTransferred",
					"type": "event"
				},
				{
					"anonymous": false,
					"inputs": [
						{
							"indexed": true,
							"internalType": "address",
							"name": "user",
							"type": "address"
						},
						{
							"indexed": false,
							"internalType": "uint256",
							"name": "userID",
							"type": "uint256"
						},
						{
							"indexed": false,
							"internalType": "string",
							"name": "name",
							"type": "string"
						},
						{
							"indexed": false,
							"internalType": "uint256",
							"name": "age",
							"type": "uint256"
						},
						{
							"indexed": false,
							"internalType": "string",
							"name": "email",
							"type": "string"
						}
					],
					"name": "UserInfoUpdated",
					"type": "event"
				},
				{
					"inputs": [
						{
							"internalType": "address",
							"name": "userAddress",
							"type": "address"
						},
						{
							"internalType": "uint256",
							"name": "_userID",
							"type": "uint256"
						}
					],
					"name": "getUserInfo",
					"outputs": [
						{
							"internalType": "string",
							"name": "",
							"type": "string"
						},
						{
							"internalType": "uint256",
							"name": "",
							"type": "uint256"
						},
						{
							"internalType": "string",
							"name": "",
							"type": "string"
						}
					],
					"stateMutability": "view",
					"type": "function"
				},
				{
					"inputs": [
						{
							"internalType": "address",
							"name": "userAddress",
							"type": "address"
						},
						{
							"internalType": "uint256",
							"name": "_userID",
							"type": "uint256"
						}
					],
					"name": "hasUserInfo",
					"outputs": [
						{
							"internalType": "bool",
							"name": "",
							"type": "bool"
						}
					],
					"stateMutability": "view",
					"type": "function"
				},
				{
					"inputs": [
						{
							"internalType": "address",
							"name": "_enteredAddress",
							"type": "address"
						}
					],
					"name": "isOwner",
					"outputs": [
						{
							"internalType": "bool",
							"name": "",
							"type": "bool"
						}
					],
					"stateMutability": "view",
					"type": "function"
				},
				{
					"inputs": [
						{
							"internalType": "uint256",
							"name": "_userID",
							"type": "uint256"
						},
						{
							"internalType": "string",
							"name": "_name",
							"type": "string"
						},
						{
							"internalType": "uint256",
							"name": "_age",
							"type": "uint256"
						},
						{
							"internalType": "string",
							"name": "_email",
							"type": "string"
						}
					],
					"name": "setUserInfo",
					"outputs": [],
					"stateMutability": "nonpayable",
					"type": "function"
				},
				{
					"inputs": [
						{
							"internalType": "address",
							"name": "_newOwner",
							"type": "address"
						}
					],
					"name": "transferOwnership",
					"outputs": [],
					"stateMutability": "nonpayable",
					"type": "function"
				}
			],
			"devdoc": {
				"kind": "dev",
				"methods": {},
				"version": 1
			},
			"evm": {
				"assembly": "    /* \"UserInfo.sol\":81:1938  contract UserInfo {... */\n  mstore(0x40, 0x80)\n    /* \"UserInfo.sol\":680:728  constructor(){... */\n  callvalue\n  dup1\n  iszero\n  tag_1\n  jumpi\n  0x00\n  dup1\n  revert\ntag_1:\n  pop\n    /* \"UserInfo.sol\":711:721  msg.sender */\n  caller\n    /* \"UserInfo.sol\":703:708  owner */\n  0x00\n  dup1\n    /* \"UserInfo.sol\":703:721  owner = msg.sender */\n  0x0100\n  exp\n  dup2\n  sload\n  dup2\n  0xffffffffffffffffffffffffffffffffffffffff\n  mul\n  not\n  and\n  swap1\n  dup4\n  0xffffffffffffffffffffffffffffffffffffffff\n  and\n  mul\n  or\n  swap1\n  sstore\n  pop\n    /* \"UserInfo.sol\":81:1938  contract UserInfo {... */\n  dataSize(sub_0)\n  dup1\n  dataOffset(sub_0)\n  0x00\n  codecopy\n  0x00\n  return\nstop\n\nsub_0: assembly {\n        /* \"UserInfo.sol\":81:1938  contract UserInfo {... */\n      mstore(0x40, 0x80)\n      callvalue\n      dup1\n      iszero\n      tag_1\n      jumpi\n      0x00\n      dup1\n      revert\n    tag_1:\n      pop\n      jumpi(tag_2, lt(calldatasize, 0x04))\n      shr(0xe0, calldataload(0x00))\n      dup1\n      0x29304714\n      eq\n      tag_3\n      jumpi\n      dup1\n      0x2f54bf6e\n      eq\n      tag_4\n      jumpi\n      dup1\n      0x5893103a\n      eq\n      tag_5\n      jumpi\n      dup1\n      0x76e8424f\n      eq\n      tag_6\n      jumpi\n      dup1\n      0xf2fde38b\n      eq\n      tag_7\n      jumpi\n    tag_2:\n      0x00\n      dup1\n      revert\n        /* \"UserInfo.sol\":734:1072  function setUserInfo(uint _userID, string memory _name, uint _age, string memory _email) public onlyOwner {... */\n    tag_3:\n      tag_8\n      0x04\n      dup1\n      calldatasize\n      sub\n      dup2\n      add\n      swap1\n      tag_9\n      swap2\n      swap1\n      tag_10\n      jump\t// in\n    tag_9:\n      tag_11\n      jump\t// in\n    tag_8:\n      stop\n        /* \"UserInfo.sol\":1815:1931  function isOwner(address _enteredAddress) public view returns (bool){... */\n    tag_4:\n      tag_12\n      0x04\n      dup1\n      calldatasize\n      sub\n      dup2\n      add\n      swap1\n      tag_13\n      swap2\n      swap1\n      tag_14\n      jump\t// in\n    tag_13:\n      tag_15\n      jump\t// in\n    tag_12:\n      mload(0x40)\n      tag_16\n      swap2\n      swap1\n      tag_17\n      jump\t// in\n    tag_16:\n      mload(0x40)\n      dup1\n      swap2\n      sub\n      swap1\n      return\n        /* \"UserInfo.sol\":1411:1567  function hasUserInfo(address userAddress, uint _userID) public view returns (bool){... */\n    tag_5:\n      tag_18\n      0x04\n      dup1\n      calldatasize\n      sub\n      dup2\n      add\n      swap1\n      tag_19\n      swap2\n      swap1\n      tag_20\n      jump\t// in\n    tag_19:\n      tag_21\n      jump\t// in\n    tag_18:\n      mload(0x40)\n      tag_22\n      swap2\n      swap1\n      tag_17\n      jump\t// in\n    tag_22:\n      mload(0x40)\n      dup1\n      swap2\n      sub\n      swap1\n      return\n        /* \"UserInfo.sol\":1129:1362  function getUserInfo(address userAddress, uint _userID) public view returns (string memory, uint, string memory){... */\n    tag_6:\n      tag_23\n      0x04\n      dup1\n      calldatasize\n      sub\n      dup2\n      add\n      swap1\n      tag_24\n      swap2\n      swap1\n      tag_20\n      jump\t// in\n    tag_24:\n      tag_25\n      jump\t// in\n    tag_23:\n      mload(0x40)\n      tag_26\n      swap4\n      swap3\n      swap2\n      swap1\n      tag_27\n      jump\t// in\n    tag_26:\n      mload(0x40)\n      dup1\n      swap2\n      sub\n      swap1\n      return\n        /* \"UserInfo.sol\":1573:1809  function transferOwnership(address _newOwner) public onlyOwner{... */\n    tag_7:\n      tag_28\n      0x04\n      dup1\n      calldatasize\n      sub\n      dup2\n      add\n      swap1\n      tag_29\n      swap2\n      swap1\n      tag_14\n      jump\t// in\n    tag_29:\n      tag_30\n      jump\t// in\n    tag_28:\n      stop\n        /* \"UserInfo.sol\":734:1072  function setUserInfo(uint _userID, string memory _name, uint _age, string memory _email) public onlyOwner {... */\n    tag_11:\n        /* \"UserInfo.sol\":368:373  owner */\n      0x00\n      dup1\n      sload\n      swap1\n      0x0100\n      exp\n      swap1\n      div\n      0xffffffffffffffffffffffffffffffffffffffff\n      and\n        /* \"UserInfo.sol\":354:373  msg.sender == owner */\n      0xffffffffffffffffffffffffffffffffffffffff\n      and\n        /* \"UserInfo.sol\":354:364  msg.sender */\n      caller\n        /* \"UserInfo.sol\":354:373  msg.sender == owner */\n      0xffffffffffffffffffffffffffffffffffffffff\n      and\n      eq\n        /* \"UserInfo.sol\":346:432  require(msg.sender == owner , \"Only the owner is allowed to perform this transaction\") */\n      tag_32\n      jumpi\n      mload(0x40)\n      0x08c379a000000000000000000000000000000000000000000000000000000000\n      dup2\n      mstore\n      0x04\n      add\n      tag_33\n      swap1\n      tag_34\n      jump\t// in\n    tag_33:\n      mload(0x40)\n      dup1\n      swap2\n      sub\n      swap1\n      revert\n    tag_32:\n        /* \"UserInfo.sol\":879:912  PersonalInfo(_name, _age, _email) */\n      mload(0x40)\n      dup1\n      0x60\n      add\n      0x40\n      mstore\n      dup1\n        /* \"UserInfo.sol\":892:897  _name */\n      dup5\n        /* \"UserInfo.sol\":879:912  PersonalInfo(_name, _age, _email) */\n      dup2\n      mstore\n      0x20\n      add\n        /* \"UserInfo.sol\":899:903  _age */\n      dup4\n        /* \"UserInfo.sol\":879:912  PersonalInfo(_name, _age, _email) */\n      dup2\n      mstore\n      0x20\n      add\n        /* \"UserInfo.sol\":905:911  _email */\n      dup3\n        /* \"UserInfo.sol\":879:912  PersonalInfo(_name, _age, _email) */\n      dup2\n      mstore\n      pop\n        /* \"UserInfo.sol\":850:855  users */\n      0x01\n        /* \"UserInfo.sol\":850:867  users[msg.sender] */\n      0x00\n        /* \"UserInfo.sol\":856:866  msg.sender */\n      caller\n        /* \"UserInfo.sol\":850:867  users[msg.sender] */\n      0xffffffffffffffffffffffffffffffffffffffff\n      and\n      0xffffffffffffffffffffffffffffffffffffffff\n      and\n      dup2\n      mstore\n      0x20\n      add\n      swap1\n      dup2\n      mstore\n      0x20\n      add\n      0x00\n      keccak256\n        /* \"UserInfo.sol\":850:876  users[msg.sender][_userID] */\n      0x00\n        /* \"UserInfo.sol\":868:875  _userID */\n      dup7\n        /* \"UserInfo.sol\":850:876  users[msg.sender][_userID] */\n      dup2\n      mstore\n      0x20\n      add\n      swap1\n      dup2\n      mstore\n      0x20\n      add\n      0x00\n      keccak256\n        /* \"UserInfo.sol\":850:912  users[msg.sender][_userID] = PersonalInfo(_name, _age, _email) */\n      0x00\n      dup3\n      add\n      mload\n      dup2\n      0x00\n      add\n      swap1\n      dup2\n      tag_36\n      swap2\n      swap1\n      tag_37\n      jump\t// in\n    tag_36:\n      pop\n      0x20\n      dup3\n      add\n      mload\n      dup2\n      0x01\n      add\n      sstore\n      0x40\n      dup3\n      add\n      mload\n      dup2\n      0x02\n      add\n      swap1\n      dup2\n      tag_38\n      swap2\n      swap1\n      tag_37\n      jump\t// in\n    tag_38:\n      pop\n      swap1\n      pop\n      pop\n        /* \"UserInfo.sol\":985:995  msg.sender */\n      caller\n        /* \"UserInfo.sol\":969:1026  UserInfoUpdated(msg.sender, _userID, _name, _age, _email) */\n      0xffffffffffffffffffffffffffffffffffffffff\n      and\n      0xd09342d24a0bcd63618345e5a5f60d28caf4fc4bd64b02a16a9a0cd64721f898\n        /* \"UserInfo.sol\":997:1004  _userID */\n      dup6\n        /* \"UserInfo.sol\":1006:1011  _name */\n      dup6\n        /* \"UserInfo.sol\":1013:1017  _age */\n      dup6\n        /* \"UserInfo.sol\":1019:1025  _email */\n      dup6\n        /* \"UserInfo.sol\":969:1026  UserInfoUpdated(msg.sender, _userID, _name, _age, _email) */\n      mload(0x40)\n      tag_39\n      swap5\n      swap4\n      swap3\n      swap2\n      swap1\n      tag_40\n      jump\t// in\n    tag_39:\n      mload(0x40)\n      dup1\n      swap2\n      sub\n      swap1\n      log2\n        /* \"UserInfo.sol\":734:1072  function setUserInfo(uint _userID, string memory _name, uint _age, string memory _email) public onlyOwner {... */\n      pop\n      pop\n      pop\n      pop\n      jump\t// out\n        /* \"UserInfo.sol\":1815:1931  function isOwner(address _enteredAddress) public view returns (bool){... */\n    tag_15:\n        /* \"UserInfo.sol\":1878:1882  bool */\n      0x00\n        /* \"UserInfo.sol\":1919:1924  owner */\n      dup1\n      0x00\n      swap1\n      sload\n      swap1\n      0x0100\n      exp\n      swap1\n      div\n      0xffffffffffffffffffffffffffffffffffffffff\n      and\n        /* \"UserInfo.sol\":1900:1924  _enteredAddress == owner */\n      0xffffffffffffffffffffffffffffffffffffffff\n      and\n        /* \"UserInfo.sol\":1900:1915  _enteredAddress */\n      dup3\n        /* \"UserInfo.sol\":1900:1924  _enteredAddress == owner */\n      0xffffffffffffffffffffffffffffffffffffffff\n      and\n      eq\n        /* \"UserInfo.sol\":1893:1924  return _enteredAddress == owner */\n      swap1\n      pop\n        /* \"UserInfo.sol\":1815:1931  function isOwner(address _enteredAddress) public view returns (bool){... */\n      swap2\n      swap1\n      pop\n      jump\t// out\n        /* \"UserInfo.sol\":1411:1567  function hasUserInfo(address userAddress, uint _userID) public view returns (bool){... */\n    tag_21:\n        /* \"UserInfo.sol\":1488:1492  bool */\n      0x00\n        /* \"UserInfo.sol\":1559:1560  0 */\n      dup1\n        /* \"UserInfo.sol\":1516:1521  users */\n      0x01\n        /* \"UserInfo.sol\":1516:1534  users[userAddress] */\n      0x00\n        /* \"UserInfo.sol\":1522:1533  userAddress */\n      dup6\n        /* \"UserInfo.sol\":1516:1534  users[userAddress] */\n      0xffffffffffffffffffffffffffffffffffffffff\n      and\n      0xffffffffffffffffffffffffffffffffffffffff\n      and\n      dup2\n      mstore\n      0x20\n      add\n      swap1\n      dup2\n      mstore\n      0x20\n      add\n      0x00\n      keccak256\n        /* \"UserInfo.sol\":1516:1543  users[userAddress][_userID] */\n      0x00\n        /* \"UserInfo.sol\":1535:1542  _userID */\n      dup5\n        /* \"UserInfo.sol\":1516:1543  users[userAddress][_userID] */\n      dup2\n      mstore\n      0x20\n      add\n      swap1\n      dup2\n      mstore\n      0x20\n      add\n      0x00\n      keccak256\n        /* \"UserInfo.sol\":1516:1548  users[userAddress][_userID].name */\n      0x00\n      add\n        /* \"UserInfo.sol\":1510:1556  bytes(users[userAddress][_userID].name).length */\n      dup1\n      sload\n      tag_43\n      swap1\n      tag_44\n      jump\t// in\n    tag_43:\n      swap1\n      pop\n        /* \"UserInfo.sol\":1510:1560  bytes(users[userAddress][_userID].name).length > 0 */\n      gt\n        /* \"UserInfo.sol\":1503:1560  return bytes(users[userAddress][_userID].name).length > 0 */\n      swap1\n      pop\n        /* \"UserInfo.sol\":1411:1567  function hasUserInfo(address userAddress, uint _userID) public view returns (bool){... */\n      swap3\n      swap2\n      pop\n      pop\n      jump\t// out\n        /* \"UserInfo.sol\":1129:1362  function getUserInfo(address userAddress, uint _userID) public view returns (string memory, uint, string memory){... */\n    tag_25:\n        /* \"UserInfo.sol\":1206:1219  string memory */\n      0x60\n        /* \"UserInfo.sol\":1221:1225  uint */\n      0x00\n        /* \"UserInfo.sol\":1227:1240  string memory */\n      0x60\n        /* \"UserInfo.sol\":1251:1275  PersonalInfo memory info */\n      0x00\n        /* \"UserInfo.sol\":1278:1283  users */\n      0x01\n        /* \"UserInfo.sol\":1278:1296  users[userAddress] */\n      0x00\n        /* \"UserInfo.sol\":1284:1295  userAddress */\n      dup8\n        /* \"UserInfo.sol\":1278:1296  users[userAddress] */\n      0xffffffffffffffffffffffffffffffffffffffff\n      and\n      0xffffffffffffffffffffffffffffffffffffffff\n      and\n      dup2\n      mstore\n      0x20\n      add\n      swap1\n      dup2\n      mstore\n      0x20\n      add\n      0x00\n      keccak256\n        /* \"UserInfo.sol\":1278:1305  users[userAddress][_userID] */\n      0x00\n        /* \"UserInfo.sol\":1297:1304  _userID */\n      dup7\n        /* \"UserInfo.sol\":1278:1305  users[userAddress][_userID] */\n      dup2\n      mstore\n      0x20\n      add\n      swap1\n      dup2\n      mstore\n      0x20\n      add\n      0x00\n      keccak256\n        /* \"UserInfo.sol\":1251:1305  PersonalInfo memory info = users[userAddress][_userID] */\n      mload(0x40)\n      dup1\n      0x60\n      add\n      0x40\n      mstore\n      swap1\n      dup2\n      0x00\n      dup3\n      add\n      dup1\n      sload\n      tag_46\n      swap1\n      tag_44\n      jump\t// in\n    tag_46:\n      dup1\n      0x1f\n      add\n      0x20\n      dup1\n      swap2\n      div\n      mul\n      0x20\n      add\n      mload(0x40)\n      swap1\n      dup2\n      add\n      0x40\n      mstore\n      dup1\n      swap3\n      swap2\n      swap1\n      dup2\n      dup2\n      mstore\n      0x20\n      add\n      dup3\n      dup1\n      sload\n      tag_47\n      swap1\n      tag_44\n      jump\t// in\n    tag_47:\n      dup1\n      iszero\n      tag_48\n      jumpi\n      dup1\n      0x1f\n      lt\n      tag_49\n      jumpi\n      0x0100\n      dup1\n      dup4\n      sload\n      div\n      mul\n      dup4\n      mstore\n      swap2\n      0x20\n      add\n      swap2\n      jump(tag_48)\n    tag_49:\n      dup3\n      add\n      swap2\n      swap1\n      0x00\n      mstore\n      keccak256(0x00, 0x20)\n      swap1\n    tag_50:\n      dup2\n      sload\n      dup2\n      mstore\n      swap1\n      0x01\n      add\n      swap1\n      0x20\n      add\n      dup1\n      dup4\n      gt\n      tag_50\n      jumpi\n      dup3\n      swap1\n      sub\n      0x1f\n      and\n      dup3\n      add\n      swap2\n    tag_48:\n      pop\n      pop\n      pop\n      pop\n      pop\n      dup2\n      mstore\n      0x20\n      add\n      0x01\n      dup3\n      add\n      sload\n      dup2\n      mstore\n      0x20\n      add\n      0x02\n      dup3\n      add\n      dup1\n      sload\n      tag_51\n      swap1\n      tag_44\n      jump\t// in\n    tag_51:\n      dup1\n      0x1f\n      add\n      0x20\n      dup1\n      swap2\n      div\n      mul\n      0x20\n      add\n      mload(0x40)\n      swap1\n      dup2\n      add\n      0x40\n      mstore\n      dup1\n      swap3\n      swap2\n      swap1\n      dup2\n      dup2\n      mstore\n      0x20\n      add\n      dup3\n      dup1\n      sload\n      tag_52\n      swap1\n      tag_44\n      jump\t// in\n    tag_52:\n      dup1\n      iszero\n      tag_53\n      jumpi\n      dup1\n      0x1f\n      lt\n      tag_54\n      jumpi\n      0x0100\n      dup1\n      dup4\n      sload\n      div\n      mul\n      dup4\n      mstore\n      swap2\n      0x20\n      add\n      swap2\n      jump(tag_53)\n    tag_54:\n      dup3\n      add\n      swap2\n      swap1\n      0x00\n      mstore\n      keccak256(0x00, 0x20)\n      swap1\n    tag_55:\n      dup2\n      sload\n      dup2\n      mstore\n      swap1\n      0x01\n      add\n      swap1\n      0x20\n      add\n      dup1\n      dup4\n      gt\n      tag_55\n      jumpi\n      dup3\n      swap1\n      sub\n      0x1f\n      and\n      dup3\n      add\n      swap2\n    tag_53:\n      pop\n      pop\n      pop\n      pop\n      pop\n      dup2\n      mstore\n      pop\n      pop\n      swap1\n      pop\n        /* \"UserInfo.sol\":1323:1327  info */\n      dup1\n        /* \"UserInfo.sol\":1323:1332  info.name */\n      0x00\n      add\n      mload\n        /* \"UserInfo.sol\":1334:1338  info */\n      dup2\n        /* \"UserInfo.sol\":1334:1342  info.age */\n      0x20\n      add\n      mload\n        /* \"UserInfo.sol\":1344:1348  info */\n      dup3\n        /* \"UserInfo.sol\":1344:1354  info.email */\n      0x40\n      add\n      mload\n        /* \"UserInfo.sol\":1315:1355  return (info.name, info.age, info.email) */\n      swap4\n      pop\n      swap4\n      pop\n      swap4\n      pop\n      pop\n        /* \"UserInfo.sol\":1129:1362  function getUserInfo(address userAddress, uint _userID) public view returns (string memory, uint, string memory){... */\n      swap3\n      pop\n      swap3\n      pop\n      swap3\n      jump\t// out\n        /* \"UserInfo.sol\":1573:1809  function transferOwnership(address _newOwner) public onlyOwner{... */\n    tag_30:\n        /* \"UserInfo.sol\":368:373  owner */\n      0x00\n      dup1\n      sload\n      swap1\n      0x0100\n      exp\n      swap1\n      div\n      0xffffffffffffffffffffffffffffffffffffffff\n      and\n        /* \"UserInfo.sol\":354:373  msg.sender == owner */\n      0xffffffffffffffffffffffffffffffffffffffff\n      and\n        /* \"UserInfo.sol\":354:364  msg.sender */\n      caller\n        /* \"UserInfo.sol\":354:373  msg.sender == owner */\n      0xffffffffffffffffffffffffffffffffffffffff\n      and\n      eq\n        /* \"UserInfo.sol\":346:432  require(msg.sender == owner , \"Only the owner is allowed to perform this transaction\") */\n      tag_57\n      jumpi\n      mload(0x40)\n      0x08c379a000000000000000000000000000000000000000000000000000000000\n      dup2\n      mstore\n      0x04\n      add\n      tag_58\n      swap1\n      tag_34\n      jump\t// in\n    tag_58:\n      mload(0x40)\n      dup1\n      swap2\n      sub\n      swap1\n      revert\n    tag_57:\n        /* \"UserInfo.sol\":1666:1671  owner */\n      0x00\n      dup1\n      sload\n      swap1\n      0x0100\n      exp\n      swap1\n      div\n      0xffffffffffffffffffffffffffffffffffffffff\n      and\n        /* \"UserInfo.sol\":1653:1671  _newOwner != owner */\n      0xffffffffffffffffffffffffffffffffffffffff\n      and\n        /* \"UserInfo.sol\":1653:1662  _newOwner */\n      dup2\n        /* \"UserInfo.sol\":1653:1671  _newOwner != owner */\n      0xffffffffffffffffffffffffffffffffffffffff\n      and\n      sub\n        /* \"UserInfo.sol\":1645:1722  require(_newOwner != owner, \"New Owner can not be the same as current owner\") */\n      tag_60\n      jumpi\n      mload(0x40)\n      0x08c379a000000000000000000000000000000000000000000000000000000000\n      dup2\n      mstore\n      0x04\n      add\n      tag_61\n      swap1\n      tag_62\n      jump\t// in\n    tag_61:\n      mload(0x40)\n      dup1\n      swap2\n      sub\n      swap1\n      revert\n    tag_60:\n        /* \"UserInfo.sol\":1765:1774  _newOwner */\n      dup1\n        /* \"UserInfo.sol\":1737:1775  OwnershipTransferred(owner, _newOwner) */\n      0xffffffffffffffffffffffffffffffffffffffff\n      and\n        /* \"UserInfo.sol\":1758:1763  owner */\n      0x00\n      dup1\n      sload\n      swap1\n      0x0100\n      exp\n      swap1\n      div\n      0xffffffffffffffffffffffffffffffffffffffff\n      and\n        /* \"UserInfo.sol\":1737:1775  OwnershipTransferred(owner, _newOwner) */\n      0xffffffffffffffffffffffffffffffffffffffff\n      and\n      0x8be0079c531659141344cd1fd0a4f28419497f9722a3daafe3b4186f6b6457e0\n      mload(0x40)\n      mload(0x40)\n      dup1\n      swap2\n      sub\n      swap1\n      log3\n        /* \"UserInfo.sol\":1793:1802  _newOwner */\n      dup1\n        /* \"UserInfo.sol\":1785:1790  owner */\n      0x00\n      dup1\n        /* \"UserInfo.sol\":1785:1802  owner = _newOwner */\n      0x0100\n      exp\n      dup2\n      sload\n      dup2\n      0xffffffffffffffffffffffffffffffffffffffff\n      mul\n      not\n      and\n      swap1\n      dup4\n      0xffffffffffffffffffffffffffffffffffffffff\n      and\n      mul\n      or\n      swap1\n      sstore\n      pop\n        /* \"UserInfo.sol\":1573:1809  function transferOwnership(address _newOwner) public onlyOwner{... */\n      pop\n      jump\t// out\n        /* \"#utility.yul\":7:82   */\n    tag_63:\n        /* \"#utility.yul\":40:46   */\n      0x00\n        /* \"#utility.yul\":73:75   */\n      0x40\n        /* \"#utility.yul\":67:76   */\n      mload\n        /* \"#utility.yul\":57:76   */\n      swap1\n      pop\n        /* \"#utility.yul\":7:82   */\n      swap1\n      jump\t// out\n        /* \"#utility.yul\":88:205   */\n    tag_64:\n        /* \"#utility.yul\":197:198   */\n      0x00\n        /* \"#utility.yul\":194:195   */\n      dup1\n        /* \"#utility.yul\":187:199   */\n      revert\n        /* \"#utility.yul\":211:328   */\n    tag_65:\n        /* \"#utility.yul\":320:321   */\n      0x00\n        /* \"#utility.yul\":317:318   */\n      dup1\n        /* \"#utility.yul\":310:322   */\n      revert\n        /* \"#utility.yul\":334:411   */\n    tag_66:\n        /* \"#utility.yul\":371:378   */\n      0x00\n        /* \"#utility.yul\":400:405   */\n      dup2\n        /* \"#utility.yul\":389:405   */\n      swap1\n      pop\n        /* \"#utility.yul\":334:411   */\n      swap2\n      swap1\n      pop\n      jump\t// out\n        /* \"#utility.yul\":417:539   */\n    tag_67:\n        /* \"#utility.yul\":490:514   */\n      tag_116\n        /* \"#utility.yul\":508:513   */\n      dup2\n        /* \"#utility.yul\":490:514   */\n      tag_66\n      jump\t// in\n    tag_116:\n        /* \"#utility.yul\":483:488   */\n      dup2\n        /* \"#utility.yul\":480:515   */\n      eq\n        /* \"#utility.yul\":470:533   */\n      tag_117\n      jumpi\n        /* \"#utility.yul\":529:530   */\n      0x00\n        /* \"#utility.yul\":526:527   */\n      dup1\n        /* \"#utility.yul\":519:531   */\n      revert\n        /* \"#utility.yul\":470:533   */\n    tag_117:\n        /* \"#utility.yul\":417:539   */\n      pop\n      jump\t// out\n        /* \"#utility.yul\":545:684   */\n    tag_68:\n        /* \"#utility.yul\":591:596   */\n      0x00\n        /* \"#utility.yul\":629:635   */\n      dup2\n        /* \"#utility.yul\":616:636   */\n      calldataload\n        /* \"#utility.yul\":607:636   */\n      swap1\n      pop\n        /* \"#utility.yul\":645:678   */\n      tag_119\n        /* \"#utility.yul\":672:677   */\n      dup2\n        /* \"#utility.yul\":645:678   */\n      tag_67\n      jump\t// in\n    tag_119:\n        /* \"#utility.yul\":545:684   */\n      swap3\n      swap2\n      pop\n      pop\n      jump\t// out\n        /* \"#utility.yul\":690:807   */\n    tag_69:\n        /* \"#utility.yul\":799:800   */\n      0x00\n        /* \"#utility.yul\":796:797   */\n      dup1\n        /* \"#utility.yul\":789:801   */\n      revert\n        /* \"#utility.yul\":813:930   */\n    tag_70:\n        /* \"#utility.yul\":922:923   */\n      0x00\n        /* \"#utility.yul\":919:920   */\n      dup1\n        /* \"#utility.yul\":912:924   */\n      revert\n        /* \"#utility.yul\":936:1038   */\n    tag_71:\n        /* \"#utility.yul\":977:983   */\n      0x00\n        /* \"#utility.yul\":1028:1030   */\n      0x1f\n        /* \"#utility.yul\":1024:1031   */\n      not\n        /* \"#utility.yul\":1019:1021   */\n      0x1f\n        /* \"#utility.yul\":1012:1017   */\n      dup4\n        /* \"#utility.yul\":1008:1022   */\n      add\n        /* \"#utility.yul\":1004:1032   */\n      and\n        /* \"#utility.yul\":994:1032   */\n      swap1\n      pop\n        /* \"#utility.yul\":936:1038   */\n      swap2\n      swap1\n      pop\n      jump\t// out\n        /* \"#utility.yul\":1044:1224   */\n    tag_72:\n        /* \"#utility.yul\":1092:1169   */\n      0x4e487b7100000000000000000000000000000000000000000000000000000000\n        /* \"#utility.yul\":1089:1090   */\n      0x00\n        /* \"#utility.yul\":1082:1170   */\n      mstore\n        /* \"#utility.yul\":1189:1193   */\n      0x41\n        /* \"#utility.yul\":1186:1187   */\n      0x04\n        /* \"#utility.yul\":1179:1194   */\n      mstore\n        /* \"#utility.yul\":1213:1217   */\n      0x24\n        /* \"#utility.yul\":1210:1211   */\n      0x00\n        /* \"#utility.yul\":1203:1218   */\n      revert\n        /* \"#utility.yul\":1230:1511   */\n    tag_73:\n        /* \"#utility.yul\":1313:1340   */\n      tag_125\n        /* \"#utility.yul\":1335:1339   */\n      dup3\n        /* \"#utility.yul\":1313:1340   */\n      tag_71\n      jump\t// in\n    tag_125:\n        /* \"#utility.yul\":1305:1311   */\n      dup2\n        /* \"#utility.yul\":1301:1341   */\n      add\n        /* \"#utility.yul\":1443:1449   */\n      dup2\n        /* \"#utility.yul\":1431:1441   */\n      dup2\n        /* \"#utility.yul\":1428:1450   */\n      lt\n        /* \"#utility.yul\":1407:1425   */\n      0xffffffffffffffff\n        /* \"#utility.yul\":1395:1405   */\n      dup3\n        /* \"#utility.yul\":1392:1426   */\n      gt\n        /* \"#utility.yul\":1389:1451   */\n      or\n        /* \"#utility.yul\":1386:1474   */\n      iszero\n      tag_126\n      jumpi\n        /* \"#utility.yul\":1454:1472   */\n      tag_127\n      tag_72\n      jump\t// in\n    tag_127:\n        /* \"#utility.yul\":1386:1474   */\n    tag_126:\n        /* \"#utility.yul\":1494:1504   */\n      dup1\n        /* \"#utility.yul\":1490:1492   */\n      0x40\n        /* \"#utility.yul\":1483:1505   */\n      mstore\n        /* \"#utility.yul\":1273:1511   */\n      pop\n        /* \"#utility.yul\":1230:1511   */\n      pop\n      pop\n      jump\t// out\n        /* \"#utility.yul\":1517:1646   */\n    tag_74:\n        /* \"#utility.yul\":1551:1557   */\n      0x00\n        /* \"#utility.yul\":1578:1598   */\n      tag_129\n      tag_63\n      jump\t// in\n    tag_129:\n        /* \"#utility.yul\":1568:1598   */\n      swap1\n      pop\n        /* \"#utility.yul\":1607:1640   */\n      tag_130\n        /* \"#utility.yul\":1635:1639   */\n      dup3\n        /* \"#utility.yul\":1627:1633   */\n      dup3\n        /* \"#utility.yul\":1607:1640   */\n      tag_73\n      jump\t// in\n    tag_130:\n        /* \"#utility.yul\":1517:1646   */\n      swap2\n      swap1\n      pop\n      jump\t// out\n        /* \"#utility.yul\":1652:1960   */\n    tag_75:\n        /* \"#utility.yul\":1714:1718   */\n      0x00\n        /* \"#utility.yul\":1804:1822   */\n      0xffffffffffffffff\n        /* \"#utility.yul\":1796:1802   */\n      dup3\n        /* \"#utility.yul\":1793:1823   */\n      gt\n        /* \"#utility.yul\":1790:1846   */\n      iszero\n      tag_132\n      jumpi\n        /* \"#utility.yul\":1826:1844   */\n      tag_133\n      tag_72\n      jump\t// in\n    tag_133:\n        /* \"#utility.yul\":1790:1846   */\n    tag_132:\n        /* \"#utility.yul\":1864:1893   */\n      tag_134\n        /* \"#utility.yul\":1886:1892   */\n      dup3\n        /* \"#utility.yul\":1864:1893   */\n      tag_71\n      jump\t// in\n    tag_134:\n        /* \"#utility.yul\":1856:1893   */\n      swap1\n      pop\n        /* \"#utility.yul\":1948:1952   */\n      0x20\n        /* \"#utility.yul\":1942:1946   */\n      dup2\n        /* \"#utility.yul\":1938:1953   */\n      add\n        /* \"#utility.yul\":1930:1953   */\n      swap1\n      pop\n        /* \"#utility.yul\":1652:1960   */\n      swap2\n      swap1\n      pop\n      jump\t// out\n        /* \"#utility.yul\":1966:2114   */\n    tag_76:\n        /* \"#utility.yul\":2064:2070   */\n      dup3\n        /* \"#utility.yul\":2059:2062   */\n      dup2\n        /* \"#utility.yul\":2054:2057   */\n      dup4\n        /* \"#utility.yul\":2041:2071   */\n      calldatacopy\n        /* \"#utility.yul\":2105:2106   */\n      0x00\n        /* \"#utility.yul\":2096:2102   */\n      dup4\n        /* \"#utility.yul\":2091:2094   */\n      dup4\n        /* \"#utility.yul\":2087:2103   */\n      add\n        /* \"#utility.yul\":2080:2107   */\n      mstore\n        /* \"#utility.yul\":1966:2114   */\n      pop\n      pop\n      pop\n      jump\t// out\n        /* \"#utility.yul\":2120:2545   */\n    tag_77:\n        /* \"#utility.yul\":2198:2203   */\n      0x00\n        /* \"#utility.yul\":2223:2289   */\n      tag_137\n        /* \"#utility.yul\":2239:2288   */\n      tag_138\n        /* \"#utility.yul\":2281:2287   */\n      dup5\n        /* \"#utility.yul\":2239:2288   */\n      tag_75\n      jump\t// in\n    tag_138:\n        /* \"#utility.yul\":2223:2289   */\n      tag_74\n      jump\t// in\n    tag_137:\n        /* \"#utility.yul\":2214:2289   */\n      swap1\n      pop\n        /* \"#utility.yul\":2312:2318   */\n      dup3\n        /* \"#utility.yul\":2305:2310   */\n      dup2\n        /* \"#utility.yul\":2298:2319   */\n      mstore\n        /* \"#utility.yul\":2350:2354   */\n      0x20\n        /* \"#utility.yul\":2343:2348   */\n      dup2\n        /* \"#utility.yul\":2339:2355   */\n      add\n        /* \"#utility.yul\":2388:2391   */\n      dup5\n        /* \"#utility.yul\":2379:2385   */\n      dup5\n        /* \"#utility.yul\":2374:2377   */\n      dup5\n        /* \"#utility.yul\":2370:2386   */\n      add\n        /* \"#utility.yul\":2367:2392   */\n      gt\n        /* \"#utility.yul\":2364:2476   */\n      iszero\n      tag_139\n      jumpi\n        /* \"#utility.yul\":2395:2474   */\n      tag_140\n      tag_70\n      jump\t// in\n    tag_140:\n        /* \"#utility.yul\":2364:2476   */\n    tag_139:\n        /* \"#utility.yul\":2485:2539   */\n      tag_141\n        /* \"#utility.yul\":2532:2538   */\n      dup5\n        /* \"#utility.yul\":2527:2530   */\n      dup3\n        /* \"#utility.yul\":2522:2525   */\n      dup6\n        /* \"#utility.yul\":2485:2539   */\n      tag_76\n      jump\t// in\n    tag_141:\n        /* \"#utility.yul\":2204:2545   */\n      pop\n        /* \"#utility.yul\":2120:2545   */\n      swap4\n      swap3\n      pop\n      pop\n      pop\n      jump\t// out\n        /* \"#utility.yul\":2565:2905   */\n    tag_78:\n        /* \"#utility.yul\":2621:2626   */\n      0x00\n        /* \"#utility.yul\":2670:2673   */\n      dup3\n        /* \"#utility.yul\":2663:2667   */\n      0x1f\n        /* \"#utility.yul\":2655:2661   */\n      dup4\n        /* \"#utility.yul\":2651:2668   */\n      add\n        /* \"#utility.yul\":2647:2674   */\n      slt\n        /* \"#utility.yul\":2637:2759   */\n      tag_143\n      jumpi\n        /* \"#utility.yul\":2678:2757   */\n      tag_144\n      tag_69\n      jump\t// in\n    tag_144:\n        /* \"#utility.yul\":2637:2759   */\n    tag_143:\n        /* \"#utility.yul\":2795:2801   */\n      dup2\n        /* \"#utility.yul\":2782:2802   */\n      calldataload\n        /* \"#utility.yul\":2820:2899   */\n      tag_145\n        /* \"#utility.yul\":2895:2898   */\n      dup5\n        /* \"#utility.yul\":2887:2893   */\n      dup3\n        /* \"#utility.yul\":2880:2884   */\n      0x20\n        /* \"#utility.yul\":2872:2878   */\n      dup7\n        /* \"#utility.yul\":2868:2885   */\n      add\n        /* \"#utility.yul\":2820:2899   */\n      tag_77\n      jump\t// in\n    tag_145:\n        /* \"#utility.yul\":2811:2899   */\n      swap2\n      pop\n        /* \"#utility.yul\":2627:2905   */\n      pop\n        /* \"#utility.yul\":2565:2905   */\n      swap3\n      swap2\n      pop\n      pop\n      jump\t// out\n        /* \"#utility.yul\":2911:4036   */\n    tag_10:\n        /* \"#utility.yul\":3017:3023   */\n      0x00\n        /* \"#utility.yul\":3025:3031   */\n      dup1\n        /* \"#utility.yul\":3033:3039   */\n      0x00\n        /* \"#utility.yul\":3041:3047   */\n      dup1\n        /* \"#utility.yul\":3090:3093   */\n      0x80\n        /* \"#utility.yul\":3078:3087   */\n      dup6\n        /* \"#utility.yul\":3069:3076   */\n      dup8\n        /* \"#utility.yul\":3065:3088   */\n      sub\n        /* \"#utility.yul\":3061:3094   */\n      slt\n        /* \"#utility.yul\":3058:3178   */\n      iszero\n      tag_147\n      jumpi\n        /* \"#utility.yul\":3097:3176   */\n      tag_148\n      tag_64\n      jump\t// in\n    tag_148:\n        /* \"#utility.yul\":3058:3178   */\n    tag_147:\n        /* \"#utility.yul\":3217:3218   */\n      0x00\n        /* \"#utility.yul\":3242:3295   */\n      tag_149\n        /* \"#utility.yul\":3287:3294   */\n      dup8\n        /* \"#utility.yul\":3278:3284   */\n      dup3\n        /* \"#utility.yul\":3267:3276   */\n      dup9\n        /* \"#utility.yul\":3263:3285   */\n      add\n        /* \"#utility.yul\":3242:3295   */\n      tag_68\n      jump\t// in\n    tag_149:\n        /* \"#utility.yul\":3232:3295   */\n      swap5\n      pop\n        /* \"#utility.yul\":3188:3305   */\n      pop\n        /* \"#utility.yul\":3372:3374   */\n      0x20\n        /* \"#utility.yul\":3361:3370   */\n      dup6\n        /* \"#utility.yul\":3357:3375   */\n      add\n        /* \"#utility.yul\":3344:3376   */\n      calldataload\n        /* \"#utility.yul\":3403:3421   */\n      0xffffffffffffffff\n        /* \"#utility.yul\":3395:3401   */\n      dup2\n        /* \"#utility.yul\":3392:3422   */\n      gt\n        /* \"#utility.yul\":3389:3506   */\n      iszero\n      tag_150\n      jumpi\n        /* \"#utility.yul\":3425:3504   */\n      tag_151\n      tag_65\n      jump\t// in\n    tag_151:\n        /* \"#utility.yul\":3389:3506   */\n    tag_150:\n        /* \"#utility.yul\":3530:3593   */\n      tag_152\n        /* \"#utility.yul\":3585:3592   */\n      dup8\n        /* \"#utility.yul\":3576:3582   */\n      dup3\n        /* \"#utility.yul\":3565:3574   */\n      dup9\n        /* \"#utility.yul\":3561:3583   */\n      add\n        /* \"#utility.yul\":3530:3593   */\n      tag_78\n      jump\t// in\n    tag_152:\n        /* \"#utility.yul\":3520:3593   */\n      swap4\n      pop\n        /* \"#utility.yul\":3315:3603   */\n      pop\n        /* \"#utility.yul\":3642:3644   */\n      0x40\n        /* \"#utility.yul\":3668:3721   */\n      tag_153\n        /* \"#utility.yul\":3713:3720   */\n      dup8\n        /* \"#utility.yul\":3704:3710   */\n      dup3\n        /* \"#utility.yul\":3693:3702   */\n      dup9\n        /* \"#utility.yul\":3689:3711   */\n      add\n        /* \"#utility.yul\":3668:3721   */\n      tag_68\n      jump\t// in\n    tag_153:\n        /* \"#utility.yul\":3658:3721   */\n      swap3\n      pop\n        /* \"#utility.yul\":3613:3731   */\n      pop\n        /* \"#utility.yul\":3798:3800   */\n      0x60\n        /* \"#utility.yul\":3787:3796   */\n      dup6\n        /* \"#utility.yul\":3783:3801   */\n      add\n        /* \"#utility.yul\":3770:3802   */\n      calldataload\n        /* \"#utility.yul\":3829:3847   */\n      0xffffffffffffffff\n        /* \"#utility.yul\":3821:3827   */\n      dup2\n        /* \"#utility.yul\":3818:3848   */\n      gt\n        /* \"#utility.yul\":3815:3932   */\n      iszero\n      tag_154\n      jumpi\n        /* \"#utility.yul\":3851:3930   */\n      tag_155\n      tag_65\n      jump\t// in\n    tag_155:\n        /* \"#utility.yul\":3815:3932   */\n    tag_154:\n        /* \"#utility.yul\":3956:4019   */\n      tag_156\n        /* \"#utility.yul\":4011:4018   */\n      dup8\n        /* \"#utility.yul\":4002:4008   */\n      dup3\n        /* \"#utility.yul\":3991:4000   */\n      dup9\n        /* \"#utility.yul\":3987:4009   */\n      add\n        /* \"#utility.yul\":3956:4019   */\n      tag_78\n      jump\t// in\n    tag_156:\n        /* \"#utility.yul\":3946:4019   */\n      swap2\n      pop\n        /* \"#utility.yul\":3741:4029   */\n      pop\n        /* \"#utility.yul\":2911:4036   */\n      swap3\n      swap6\n      swap2\n      swap5\n      pop\n      swap3\n      pop\n      jump\t// out\n        /* \"#utility.yul\":4042:4168   */\n    tag_79:\n        /* \"#utility.yul\":4079:4086   */\n      0x00\n        /* \"#utility.yul\":4119:4161   */\n      0xffffffffffffffffffffffffffffffffffffffff\n        /* \"#utility.yul\":4112:4117   */\n      dup3\n        /* \"#utility.yul\":4108:4162   */\n      and\n        /* \"#utility.yul\":4097:4162   */\n      swap1\n      pop\n        /* \"#utility.yul\":4042:4168   */\n      swap2\n      swap1\n      pop\n      jump\t// out\n        /* \"#utility.yul\":4174:4270   */\n    tag_80:\n        /* \"#utility.yul\":4211:4218   */\n      0x00\n        /* \"#utility.yul\":4240:4264   */\n      tag_159\n        /* \"#utility.yul\":4258:4263   */\n      dup3\n        /* \"#utility.yul\":4240:4264   */\n      tag_79\n      jump\t// in\n    tag_159:\n        /* \"#utility.yul\":4229:4264   */\n      swap1\n      pop\n        /* \"#utility.yul\":4174:4270   */\n      swap2\n      swap1\n      pop\n      jump\t// out\n        /* \"#utility.yul\":4276:4398   */\n    tag_81:\n        /* \"#utility.yul\":4349:4373   */\n      tag_161\n        /* \"#utility.yul\":4367:4372   */\n      dup2\n        /* \"#utility.yul\":4349:4373   */\n      tag_80\n      jump\t// in\n    tag_161:\n        /* \"#utility.yul\":4342:4347   */\n      dup2\n        /* \"#utility.yul\":4339:4374   */\n      eq\n        /* \"#utility.yul\":4329:4392   */\n      tag_162\n      jumpi\n        /* \"#utility.yul\":4388:4389   */\n      0x00\n        /* \"#utility.yul\":4385:4386   */\n      dup1\n        /* \"#utility.yul\":4378:4390   */\n      revert\n        /* \"#utility.yul\":4329:4392   */\n    tag_162:\n        /* \"#utility.yul\":4276:4398   */\n      pop\n      jump\t// out\n        /* \"#utility.yul\":4404:4543   */\n    tag_82:\n        /* \"#utility.yul\":4450:4455   */\n      0x00\n        /* \"#utility.yul\":4488:4494   */\n      dup2\n        /* \"#utility.yul\":4475:4495   */\n      calldataload\n        /* \"#utility.yul\":4466:4495   */\n      swap1\n      pop\n        /* \"#utility.yul\":4504:4537   */\n      tag_164\n        /* \"#utility.yul\":4531:4536   */\n      dup2\n        /* \"#utility.yul\":4504:4537   */\n      tag_81\n      jump\t// in\n    tag_164:\n        /* \"#utility.yul\":4404:4543   */\n      swap3\n      swap2\n      pop\n      pop\n      jump\t// out\n        /* \"#utility.yul\":4549:4878   */\n    tag_14:\n        /* \"#utility.yul\":4608:4614   */\n      0x00\n        /* \"#utility.yul\":4657:4659   */\n      0x20\n        /* \"#utility.yul\":4645:4654   */\n      dup3\n        /* \"#utility.yul\":4636:4643   */\n      dup5\n        /* \"#utility.yul\":4632:4655   */\n      sub\n        /* \"#utility.yul\":4628:4660   */\n      slt\n        /* \"#utility.yul\":4625:4744   */\n      iszero\n      tag_166\n      jumpi\n        /* \"#utility.yul\":4663:4742   */\n      tag_167\n      tag_64\n      jump\t// in\n    tag_167:\n        /* \"#utility.yul\":4625:4744   */\n    tag_166:\n        /* \"#utility.yul\":4783:4784   */\n      0x00\n        /* \"#utility.yul\":4808:4861   */\n      tag_168\n        /* \"#utility.yul\":4853:4860   */\n      dup5\n        /* \"#utility.yul\":4844:4850   */\n      dup3\n        /* \"#utility.yul\":4833:4842   */\n      dup6\n        /* \"#utility.yul\":4829:4851   */\n      add\n        /* \"#utility.yul\":4808:4861   */\n      tag_82\n      jump\t// in\n    tag_168:\n        /* \"#utility.yul\":4798:4861   */\n      swap2\n      pop\n        /* \"#utility.yul\":4754:4871   */\n      pop\n        /* \"#utility.yul\":4549:4878   */\n      swap3\n      swap2\n      pop\n      pop\n      jump\t// out\n        /* \"#utility.yul\":4884:4974   */\n    tag_83:\n        /* \"#utility.yul\":4918:4925   */\n      0x00\n        /* \"#utility.yul\":4961:4966   */\n      dup2\n        /* \"#utility.yul\":4954:4967   */\n      iszero\n        /* \"#utility.yul\":4947:4968   */\n      iszero\n        /* \"#utility.yul\":4936:4968   */\n      swap1\n      pop\n        /* \"#utility.yul\":4884:4974   */\n      swap2\n      swap1\n      pop\n      jump\t// out\n        /* \"#utility.yul\":4980:5089   */\n    tag_84:\n        /* \"#utility.yul\":5061:5082   */\n      tag_171\n        /* \"#utility.yul\":5076:5081   */\n      dup2\n        /* \"#utility.yul\":5061:5082   */\n      tag_83\n      jump\t// in\n    tag_171:\n        /* \"#utility.yul\":5056:5059   */\n      dup3\n        /* \"#utility.yul\":5049:5083   */\n      mstore\n        /* \"#utility.yul\":4980:5089   */\n      pop\n      pop\n      jump\t// out\n        /* \"#utility.yul\":5095:5305   */\n    tag_17:\n        /* \"#utility.yul\":5182:5186   */\n      0x00\n        /* \"#utility.yul\":5220:5222   */\n      0x20\n        /* \"#utility.yul\":5209:5218   */\n      dup3\n        /* \"#utility.yul\":5205:5223   */\n      add\n        /* \"#utility.yul\":5197:5223   */\n      swap1\n      pop\n        /* \"#utility.yul\":5233:5298   */\n      tag_173\n        /* \"#utility.yul\":5295:5296   */\n      0x00\n        /* \"#utility.yul\":5284:5293   */\n      dup4\n        /* \"#utility.yul\":5280:5297   */\n      add\n        /* \"#utility.yul\":5271:5277   */\n      dup5\n        /* \"#utility.yul\":5233:5298   */\n      tag_84\n      jump\t// in\n    tag_173:\n        /* \"#utility.yul\":5095:5305   */\n      swap3\n      swap2\n      pop\n      pop\n      jump\t// out\n        /* \"#utility.yul\":5311:5785   */\n    tag_20:\n        /* \"#utility.yul\":5379:5385   */\n      0x00\n        /* \"#utility.yul\":5387:5393   */\n      dup1\n        /* \"#utility.yul\":5436:5438   */\n      0x40\n        /* \"#utility.yul\":5424:5433   */\n      dup4\n        /* \"#utility.yul\":5415:5422   */\n      dup6\n        /* \"#utility.yul\":5411:5434   */\n      sub\n        /* \"#utility.yul\":5407:5439   */\n      slt\n        /* \"#utility.yul\":5404:5523   */\n      iszero\n      tag_175\n      jumpi\n        /* \"#utility.yul\":5442:5521   */\n      tag_176\n      tag_64\n      jump\t// in\n    tag_176:\n        /* \"#utility.yul\":5404:5523   */\n    tag_175:\n        /* \"#utility.yul\":5562:5563   */\n      0x00\n        /* \"#utility.yul\":5587:5640   */\n      tag_177\n        /* \"#utility.yul\":5632:5639   */\n      dup6\n        /* \"#utility.yul\":5623:5629   */\n      dup3\n        /* \"#utility.yul\":5612:5621   */\n      dup7\n        /* \"#utility.yul\":5608:5630   */\n      add\n        /* \"#utility.yul\":5587:5640   */\n      tag_82\n      jump\t// in\n    tag_177:\n        /* \"#utility.yul\":5577:5640   */\n      swap3\n      pop\n        /* \"#utility.yul\":5533:5650   */\n      pop\n        /* \"#utility.yul\":5689:5691   */\n      0x20\n        /* \"#utility.yul\":5715:5768   */\n      tag_178\n        /* \"#utility.yul\":5760:5767   */\n      dup6\n        /* \"#utility.yul\":5751:5757   */\n      dup3\n        /* \"#utility.yul\":5740:5749   */\n      dup7\n        /* \"#utility.yul\":5736:5758   */\n      add\n        /* \"#utility.yul\":5715:5768   */\n      tag_68\n      jump\t// in\n    tag_178:\n        /* \"#utility.yul\":5705:5768   */\n      swap2\n      pop\n        /* \"#utility.yul\":5660:5778   */\n      pop\n        /* \"#utility.yul\":5311:5785   */\n      swap3\n      pop\n      swap3\n      swap1\n      pop\n      jump\t// out\n        /* \"#utility.yul\":5791:5890   */\n    tag_85:\n        /* \"#utility.yul\":5843:5849   */\n      0x00\n        /* \"#utility.yul\":5877:5882   */\n      dup2\n        /* \"#utility.yul\":5871:5883   */\n      mload\n        /* \"#utility.yul\":5861:5883   */\n      swap1\n      pop\n        /* \"#utility.yul\":5791:5890   */\n      swap2\n      swap1\n      pop\n      jump\t// out\n        /* \"#utility.yul\":5896:6065   */\n    tag_86:\n        /* \"#utility.yul\":5980:5991   */\n      0x00\n        /* \"#utility.yul\":6014:6020   */\n      dup3\n        /* \"#utility.yul\":6009:6012   */\n      dup3\n        /* \"#utility.yul\":6002:6021   */\n      mstore\n        /* \"#utility.yul\":6054:6058   */\n      0x20\n        /* \"#utility.yul\":6049:6052   */\n      dup3\n        /* \"#utility.yul\":6045:6059   */\n      add\n        /* \"#utility.yul\":6030:6059   */\n      swap1\n      pop\n        /* \"#utility.yul\":5896:6065   */\n      swap3\n      swap2\n      pop\n      pop\n      jump\t// out\n        /* \"#utility.yul\":6071:6210   */\n    tag_87:\n        /* \"#utility.yul\":6160:6166   */\n      dup3\n        /* \"#utility.yul\":6155:6158   */\n      dup2\n        /* \"#utility.yul\":6150:6153   */\n      dup4\n        /* \"#utility.yul\":6144:6167   */\n      mcopy\n        /* \"#utility.yul\":6201:6202   */\n      0x00\n        /* \"#utility.yul\":6192:6198   */\n      dup4\n        /* \"#utility.yul\":6187:6190   */\n      dup4\n        /* \"#utility.yul\":6183:6199   */\n      add\n        /* \"#utility.yul\":6176:6203   */\n      mstore\n        /* \"#utility.yul\":6071:6210   */\n      pop\n      pop\n      pop\n      jump\t// out\n        /* \"#utility.yul\":6216:6593   */\n    tag_88:\n        /* \"#utility.yul\":6304:6307   */\n      0x00\n        /* \"#utility.yul\":6332:6371   */\n      tag_183\n        /* \"#utility.yul\":6365:6370   */\n      dup3\n        /* \"#utility.yul\":6332:6371   */\n      tag_85\n      jump\t// in\n    tag_183:\n        /* \"#utility.yul\":6387:6458   */\n      tag_184\n        /* \"#utility.yul\":6451:6457   */\n      dup2\n        /* \"#utility.yul\":6446:6449   */\n      dup6\n        /* \"#utility.yul\":6387:6458   */\n      tag_86\n      jump\t// in\n    tag_184:\n        /* \"#utility.yul\":6380:6458   */\n      swap4\n      pop\n        /* \"#utility.yul\":6467:6532   */\n      tag_185\n        /* \"#utility.yul\":6525:6531   */\n      dup2\n        /* \"#utility.yul\":6520:6523   */\n      dup6\n        /* \"#utility.yul\":6513:6517   */\n      0x20\n        /* \"#utility.yul\":6506:6511   */\n      dup7\n        /* \"#utility.yul\":6502:6518   */\n      add\n        /* \"#utility.yul\":6467:6532   */\n      tag_87\n      jump\t// in\n    tag_185:\n        /* \"#utility.yul\":6557:6586   */\n      tag_186\n        /* \"#utility.yul\":6579:6585   */\n      dup2\n        /* \"#utility.yul\":6557:6586   */\n      tag_71\n      jump\t// in\n    tag_186:\n        /* \"#utility.yul\":6552:6555   */\n      dup5\n        /* \"#utility.yul\":6548:6587   */\n      add\n        /* \"#utility.yul\":6541:6587   */\n      swap2\n      pop\n        /* \"#utility.yul\":6308:6593   */\n      pop\n        /* \"#utility.yul\":6216:6593   */\n      swap3\n      swap2\n      pop\n      pop\n      jump\t// out\n        /* \"#utility.yul\":6599:6717   */\n    tag_89:\n        /* \"#utility.yul\":6686:6710   */\n      tag_188\n        /* \"#utility.yul\":6704:6709   */\n      dup2\n        /* \"#utility.yul\":6686:6710   */\n      tag_66\n      jump\t// in\n    tag_188:\n        /* \"#utility.yul\":6681:6684   */\n      dup3\n        /* \"#utility.yul\":6674:6711   */\n      mstore\n        /* \"#utility.yul\":6599:6717   */\n      pop\n      pop\n      jump\t// out\n        /* \"#utility.yul\":6723:7347   */\n    tag_27:\n        /* \"#utility.yul\":6912:6916   */\n      0x00\n        /* \"#utility.yul\":6950:6952   */\n      0x60\n        /* \"#utility.yul\":6939:6948   */\n      dup3\n        /* \"#utility.yul\":6935:6953   */\n      add\n        /* \"#utility.yul\":6927:6953   */\n      swap1\n      pop\n        /* \"#utility.yul\":6999:7008   */\n      dup2\n        /* \"#utility.yul\":6993:6997   */\n      dup2\n        /* \"#utility.yul\":6989:7009   */\n      sub\n        /* \"#utility.yul\":6985:6986   */\n      0x00\n        /* \"#utility.yul\":6974:6983   */\n      dup4\n        /* \"#utility.yul\":6970:6987   */\n      add\n        /* \"#utility.yul\":6963:7010   */\n      mstore\n        /* \"#utility.yul\":7027:7105   */\n      tag_190\n        /* \"#utility.yul\":7100:7104   */\n      dup2\n        /* \"#utility.yul\":7091:7097   */\n      dup7\n        /* \"#utility.yul\":7027:7105   */\n      tag_88\n      jump\t// in\n    tag_190:\n        /* \"#utility.yul\":7019:7105   */\n      swap1\n      pop\n        /* \"#utility.yul\":7115:7187   */\n      tag_191\n        /* \"#utility.yul\":7183:7185   */\n      0x20\n        /* \"#utility.yul\":7172:7181   */\n      dup4\n        /* \"#utility.yul\":7168:7186   */\n      add\n        /* \"#utility.yul\":7159:7165   */\n      dup6\n        /* \"#utility.yul\":7115:7187   */\n      tag_89\n      jump\t// in\n    tag_191:\n        /* \"#utility.yul\":7234:7243   */\n      dup2\n        /* \"#utility.yul\":7228:7232   */\n      dup2\n        /* \"#utility.yul\":7224:7244   */\n      sub\n        /* \"#utility.yul\":7219:7221   */\n      0x40\n        /* \"#utility.yul\":7208:7217   */\n      dup4\n        /* \"#utility.yul\":7204:7222   */\n      add\n        /* \"#utility.yul\":7197:7245   */\n      mstore\n        /* \"#utility.yul\":7262:7340   */\n      tag_192\n        /* \"#utility.yul\":7335:7339   */\n      dup2\n        /* \"#utility.yul\":7326:7332   */\n      dup5\n        /* \"#utility.yul\":7262:7340   */\n      tag_88\n      jump\t// in\n    tag_192:\n        /* \"#utility.yul\":7254:7340   */\n      swap1\n      pop\n        /* \"#utility.yul\":6723:7347   */\n      swap5\n      swap4\n      pop\n      pop\n      pop\n      pop\n      jump\t// out\n        /* \"#utility.yul\":7353:7593   */\n    tag_90:\n        /* \"#utility.yul\":7493:7527   */\n      0x4f6e6c7920746865206f776e657220697320616c6c6f77656420746f20706572\n        /* \"#utility.yul\":7489:7490   */\n      0x00\n        /* \"#utility.yul\":7481:7487   */\n      dup3\n        /* \"#utility.yul\":7477:7491   */\n      add\n        /* \"#utility.yul\":7470:7528   */\n      mstore\n        /* \"#utility.yul\":7562:7585   */\n      0x666f726d2074686973207472616e73616374696f6e0000000000000000000000\n        /* \"#utility.yul\":7557:7559   */\n      0x20\n        /* \"#utility.yul\":7549:7555   */\n      dup3\n        /* \"#utility.yul\":7545:7560   */\n      add\n        /* \"#utility.yul\":7538:7586   */\n      mstore\n        /* \"#utility.yul\":7353:7593   */\n      pop\n      jump\t// out\n        /* \"#utility.yul\":7599:7965   */\n    tag_91:\n        /* \"#utility.yul\":7741:7744   */\n      0x00\n        /* \"#utility.yul\":7762:7829   */\n      tag_195\n        /* \"#utility.yul\":7826:7828   */\n      0x35\n        /* \"#utility.yul\":7821:7824   */\n      dup4\n        /* \"#utility.yul\":7762:7829   */\n      tag_86\n      jump\t// in\n    tag_195:\n        /* \"#utility.yul\":7755:7829   */\n      swap2\n      pop\n        /* \"#utility.yul\":7838:7931   */\n      tag_196\n        /* \"#utility.yul\":7927:7930   */\n      dup3\n        /* \"#utility.yul\":7838:7931   */\n      tag_90\n      jump\t// in\n    tag_196:\n        /* \"#utility.yul\":7956:7958   */\n      0x40\n        /* \"#utility.yul\":7951:7954   */\n      dup3\n        /* \"#utility.yul\":7947:7959   */\n      add\n        /* \"#utility.yul\":7940:7959   */\n      swap1\n      pop\n        /* \"#utility.yul\":7599:7965   */\n      swap2\n      swap1\n      pop\n      jump\t// out\n        /* \"#utility.yul\":7971:8390   */\n    tag_34:\n        /* \"#utility.yul\":8137:8141   */\n      0x00\n        /* \"#utility.yul\":8175:8177   */\n      0x20\n        /* \"#utility.yul\":8164:8173   */\n      dup3\n        /* \"#utility.yul\":8160:8178   */\n      add\n        /* \"#utility.yul\":8152:8178   */\n      swap1\n      pop\n        /* \"#utility.yul\":8224:8233   */\n      dup2\n        /* \"#utility.yul\":8218:8222   */\n      dup2\n        /* \"#utility.yul\":8214:8234   */\n      sub\n        /* \"#utility.yul\":8210:8211   */\n      0x00\n        /* \"#utility.yul\":8199:8208   */\n      dup4\n        /* \"#utility.yul\":8195:8212   */\n      add\n        /* \"#utility.yul\":8188:8235   */\n      mstore\n        /* \"#utility.yul\":8252:8383   */\n      tag_198\n        /* \"#utility.yul\":8378:8382   */\n      dup2\n        /* \"#utility.yul\":8252:8383   */\n      tag_91\n      jump\t// in\n    tag_198:\n        /* \"#utility.yul\":8244:8383   */\n      swap1\n      pop\n        /* \"#utility.yul\":7971:8390   */\n      swap2\n      swap1\n      pop\n      jump\t// out\n        /* \"#utility.yul\":8396:8576   */\n    tag_92:\n        /* \"#utility.yul\":8444:8521   */\n      0x4e487b7100000000000000000000000000000000000000000000000000000000\n        /* \"#utility.yul\":8441:8442   */\n      0x00\n        /* \"#utility.yul\":8434:8522   */\n      mstore\n        /* \"#utility.yul\":8541:8545   */\n      0x22\n        /* \"#utility.yul\":8538:8539   */\n      0x04\n        /* \"#utility.yul\":8531:8546   */\n      mstore\n        /* \"#utility.yul\":8565:8569   */\n      0x24\n        /* \"#utility.yul\":8562:8563   */\n      0x00\n        /* \"#utility.yul\":8555:8570   */\n      revert\n        /* \"#utility.yul\":8582:8902   */\n    tag_44:\n        /* \"#utility.yul\":8626:8632   */\n      0x00\n        /* \"#utility.yul\":8663:8664   */\n      0x02\n        /* \"#utility.yul\":8657:8661   */\n      dup3\n        /* \"#utility.yul\":8653:8665   */\n      div\n        /* \"#utility.yul\":8643:8665   */\n      swap1\n      pop\n        /* \"#utility.yul\":8710:8711   */\n      0x01\n        /* \"#utility.yul\":8704:8708   */\n      dup3\n        /* \"#utility.yul\":8700:8712   */\n      and\n        /* \"#utility.yul\":8731:8749   */\n      dup1\n        /* \"#utility.yul\":8721:8802   */\n      tag_201\n      jumpi\n        /* \"#utility.yul\":8787:8791   */\n      0x7f\n        /* \"#utility.yul\":8779:8785   */\n      dup3\n        /* \"#utility.yul\":8775:8792   */\n      and\n        /* \"#utility.yul\":8765:8792   */\n      swap2\n      pop\n        /* \"#utility.yul\":8721:8802   */\n    tag_201:\n        /* \"#utility.yul\":8849:8851   */\n      0x20\n        /* \"#utility.yul\":8841:8847   */\n      dup3\n        /* \"#utility.yul\":8838:8852   */\n      lt\n        /* \"#utility.yul\":8818:8836   */\n      dup2\n        /* \"#utility.yul\":8815:8853   */\n      sub\n        /* \"#utility.yul\":8812:8896   */\n      tag_202\n      jumpi\n        /* \"#utility.yul\":8868:8886   */\n      tag_203\n      tag_92\n      jump\t// in\n    tag_203:\n        /* \"#utility.yul\":8812:8896   */\n    tag_202:\n        /* \"#utility.yul\":8633:8902   */\n      pop\n        /* \"#utility.yul\":8582:8902   */\n      swap2\n      swap1\n      pop\n      jump\t// out\n        /* \"#utility.yul\":8908:9049   */\n    tag_93:\n        /* \"#utility.yul\":8957:8961   */\n      0x00\n        /* \"#utility.yul\":8980:8983   */\n      dup2\n        /* \"#utility.yul\":8972:8983   */\n      swap1\n      pop\n        /* \"#utility.yul\":9003:9006   */\n      dup2\n        /* \"#utility.yul\":9000:9001   */\n      0x00\n        /* \"#utility.yul\":8993:9007   */\n      mstore\n        /* \"#utility.yul\":9037:9041   */\n      0x20\n        /* \"#utility.yul\":9034:9035   */\n      0x00\n        /* \"#utility.yul\":9024:9042   */\n      keccak256\n        /* \"#utility.yul\":9016:9042   */\n      swap1\n      pop\n        /* \"#utility.yul\":8908:9049   */\n      swap2\n      swap1\n      pop\n      jump\t// out\n        /* \"#utility.yul\":9055:9148   */\n    tag_94:\n        /* \"#utility.yul\":9092:9098   */\n      0x00\n        /* \"#utility.yul\":9139:9141   */\n      0x20\n        /* \"#utility.yul\":9134:9136   */\n      0x1f\n        /* \"#utility.yul\":9127:9132   */\n      dup4\n        /* \"#utility.yul\":9123:9137   */\n      add\n        /* \"#utility.yul\":9119:9142   */\n      div\n        /* \"#utility.yul\":9109:9142   */\n      swap1\n      pop\n        /* \"#utility.yul\":9055:9148   */\n      swap2\n      swap1\n      pop\n      jump\t// out\n        /* \"#utility.yul\":9154:9261   */\n    tag_95:\n        /* \"#utility.yul\":9198:9206   */\n      0x00\n        /* \"#utility.yul\":9248:9253   */\n      dup3\n        /* \"#utility.yul\":9242:9246   */\n      dup3\n        /* \"#utility.yul\":9238:9254   */\n      shl\n        /* \"#utility.yul\":9217:9254   */\n      swap1\n      pop\n        /* \"#utility.yul\":9154:9261   */\n      swap3\n      swap2\n      pop\n      pop\n      jump\t// out\n        /* \"#utility.yul\":9267:9660   */\n    tag_96:\n        /* \"#utility.yul\":9336:9342   */\n      0x00\n        /* \"#utility.yul\":9386:9387   */\n      0x08\n        /* \"#utility.yul\":9374:9384   */\n      dup4\n        /* \"#utility.yul\":9370:9388   */\n      mul\n        /* \"#utility.yul\":9409:9506   */\n      tag_208\n        /* \"#utility.yul\":9439:9505   */\n      0xffffffffffffffffffffffffffffffffffffffffffffffffffffffffffffffff\n        /* \"#utility.yul\":9428:9437   */\n      dup3\n        /* \"#utility.yul\":9409:9506   */\n      tag_95\n      jump\t// in\n    tag_208:\n        /* \"#utility.yul\":9527:9566   */\n      tag_209\n        /* \"#utility.yul\":9557:9565   */\n      dup7\n        /* \"#utility.yul\":9546:9555   */\n      dup4\n        /* \"#utility.yul\":9527:9566   */\n      tag_95\n      jump\t// in\n    tag_209:\n        /* \"#utility.yul\":9515:9566   */\n      swap6\n      pop\n        /* \"#utility.yul\":9599:9603   */\n      dup1\n        /* \"#utility.yul\":9595:9604   */\n      not\n        /* \"#utility.yul\":9588:9593   */\n      dup5\n        /* \"#utility.yul\":9584:9605   */\n      and\n        /* \"#utility.yul\":9575:9605   */\n      swap4\n      pop\n        /* \"#utility.yul\":9648:9652   */\n      dup1\n        /* \"#utility.yul\":9638:9646   */\n      dup7\n        /* \"#utility.yul\":9634:9653   */\n      and\n        /* \"#utility.yul\":9627:9632   */\n      dup5\n        /* \"#utility.yul\":9624:9654   */\n      or\n        /* \"#utility.yul\":9614:9654   */\n      swap3\n      pop\n        /* \"#utility.yul\":9343:9660   */\n      pop\n      pop\n        /* \"#utility.yul\":9267:9660   */\n      swap4\n      swap3\n      pop\n      pop\n      pop\n      jump\t// out\n        /* \"#utility.yul\":9666:9726   */\n    tag_97:\n        /* \"#utility.yul\":9694:9697   */\n      0x00\n        /* \"#utility.yul\":9715:9720   */\n      dup2\n        /* \"#utility.yul\":9708:9720   */\n      swap1\n      pop\n        /* \"#utility.yul\":9666:9726   */\n      swap2\n      swap1\n      pop\n      jump\t// out\n        /* \"#utility.yul\":9732:9874   */\n    tag_98:\n        /* \"#utility.yul\":9782:9791   */\n      0x00\n        /* \"#utility.yul\":9815:9868   */\n      tag_212\n        /* \"#utility.yul\":9833:9867   */\n      tag_213\n        /* \"#utility.yul\":9842:9866   */\n      tag_214\n        /* \"#utility.yul\":9860:9865   */\n      dup5\n        /* \"#utility.yul\":9842:9866   */\n      tag_66\n      jump\t// in\n    tag_214:\n        /* \"#utility.yul\":9833:9867   */\n      tag_97\n      jump\t// in\n    tag_213:\n        /* \"#utility.yul\":9815:9868   */\n      tag_66\n      jump\t// in\n    tag_212:\n        /* \"#utility.yul\":9802:9868   */\n      swap1\n      pop\n        /* \"#utility.yul\":9732:9874   */\n      swap2\n      swap1\n      pop\n      jump\t// out\n        /* \"#utility.yul\":9880:9955   */\n    tag_99:\n        /* \"#utility.yul\":9923:9926   */\n      0x00\n        /* \"#utility.yul\":9944:9949   */\n      dup2\n        /* \"#utility.yul\":9937:9949   */\n      swap1\n      pop\n        /* \"#utility.yul\":9880:9955   */\n      swap2\n      swap1\n      pop\n      jump\t// out\n        /* \"#utility.yul\":9961:10230   */\n    tag_100:\n        /* \"#utility.yul\":10071:10110   */\n      tag_217\n        /* \"#utility.yul\":10102:10109   */\n      dup4\n        /* \"#utility.yul\":10071:10110   */\n      tag_98\n      jump\t// in\n    tag_217:\n        /* \"#utility.yul\":10132:10223   */\n      tag_218\n        /* \"#utility.yul\":10181:10222   */\n      tag_219\n        /* \"#utility.yul\":10205:10221   */\n      dup3\n        /* \"#utility.yul\":10181:10222   */\n      tag_99\n      jump\t// in\n    tag_219:\n        /* \"#utility.yul\":10173:10179   */\n      dup5\n        /* \"#utility.yul\":10166:10170   */\n      dup5\n        /* \"#utility.yul\":10160:10171   */\n      sload\n        /* \"#utility.yul\":10132:10223   */\n      tag_96\n      jump\t// in\n    tag_218:\n        /* \"#utility.yul\":10126:10130   */\n      dup3\n        /* \"#utility.yul\":10119:10224   */\n      sstore\n        /* \"#utility.yul\":10037:10230   */\n      pop\n        /* \"#utility.yul\":9961:10230   */\n      pop\n      pop\n      pop\n      jump\t// out\n        /* \"#utility.yul\":10236:10309   */\n    tag_101:\n        /* \"#utility.yul\":10281:10284   */\n      0x00\n        /* \"#utility.yul\":10236:10309   */\n      swap1\n      jump\t// out\n        /* \"#utility.yul\":10315:10504   */\n    tag_102:\n        /* \"#utility.yul\":10392:10424   */\n      tag_222\n      tag_101\n      jump\t// in\n    tag_222:\n        /* \"#utility.yul\":10433:10498   */\n      tag_223\n        /* \"#utility.yul\":10491:10497   */\n      dup2\n        /* \"#utility.yul\":10483:10489   */\n      dup5\n        /* \"#utility.yul\":10477:10481   */\n      dup5\n        /* \"#utility.yul\":10433:10498   */\n      tag_100\n      jump\t// in\n    tag_223:\n        /* \"#utility.yul\":10368:10504   */\n      pop\n        /* \"#utility.yul\":10315:10504   */\n      pop\n      pop\n      jump\t// out\n        /* \"#utility.yul\":10510:10696   */\n    tag_103:\n        /* \"#utility.yul\":10570:10690   */\n    tag_225:\n        /* \"#utility.yul\":10587:10590   */\n      dup2\n        /* \"#utility.yul\":10580:10585   */\n      dup2\n        /* \"#utility.yul\":10577:10591   */\n      lt\n        /* \"#utility.yul\":10570:10690   */\n      iszero\n      tag_227\n      jumpi\n        /* \"#utility.yul\":10641:10680   */\n      tag_228\n        /* \"#utility.yul\":10678:10679   */\n      0x00\n        /* \"#utility.yul\":10671:10676   */\n      dup3\n        /* \"#utility.yul\":10641:10680   */\n      tag_102\n      jump\t// in\n    tag_228:\n        /* \"#utility.yul\":10614:10615   */\n      0x01\n        /* \"#utility.yul\":10607:10612   */\n      dup2\n        /* \"#utility.yul\":10603:10616   */\n      add\n        /* \"#utility.yul\":10594:10616   */\n      swap1\n      pop\n        /* \"#utility.yul\":10570:10690   */\n      jump(tag_225)\n    tag_227:\n        /* \"#utility.yul\":10510:10696   */\n      pop\n      pop\n      jump\t// out\n        /* \"#utility.yul\":10702:11245   */\n    tag_104:\n        /* \"#utility.yul\":10803:10805   */\n      0x1f\n        /* \"#utility.yul\":10798:10801   */\n      dup3\n        /* \"#utility.yul\":10795:10806   */\n      gt\n        /* \"#utility.yul\":10792:11238   */\n      iszero\n      tag_230\n      jumpi\n        /* \"#utility.yul\":10837:10875   */\n      tag_231\n        /* \"#utility.yul\":10869:10874   */\n      dup2\n        /* \"#utility.yul\":10837:10875   */\n      tag_93\n      jump\t// in\n    tag_231:\n        /* \"#utility.yul\":10921:10950   */\n      tag_232\n        /* \"#utility.yul\":10939:10949   */\n      dup5\n        /* \"#utility.yul\":10921:10950   */\n      tag_94\n      jump\t// in\n    tag_232:\n        /* \"#utility.yul\":10911:10919   */\n      dup2\n        /* \"#utility.yul\":10907:10951   */\n      add\n        /* \"#utility.yul\":11104:11106   */\n      0x20\n        /* \"#utility.yul\":11092:11102   */\n      dup6\n        /* \"#utility.yul\":11089:11107   */\n      lt\n        /* \"#utility.yul\":11086:11135   */\n      iszero\n      tag_233\n      jumpi\n        /* \"#utility.yul\":11125:11133   */\n      dup2\n        /* \"#utility.yul\":11110:11133   */\n      swap1\n      pop\n        /* \"#utility.yul\":11086:11135   */\n    tag_233:\n        /* \"#utility.yul\":11148:11228   */\n      tag_234\n        /* \"#utility.yul\":11204:11226   */\n      tag_235\n        /* \"#utility.yul\":11222:11225   */\n      dup6\n        /* \"#utility.yul\":11204:11226   */\n      tag_94\n      jump\t// in\n    tag_235:\n        /* \"#utility.yul\":11194:11202   */\n      dup4\n        /* \"#utility.yul\":11190:11227   */\n      add\n        /* \"#utility.yul\":11177:11188   */\n      dup3\n        /* \"#utility.yul\":11148:11228   */\n      tag_103\n      jump\t// in\n    tag_234:\n        /* \"#utility.yul\":10807:11238   */\n      pop\n      pop\n        /* \"#utility.yul\":10792:11238   */\n    tag_230:\n        /* \"#utility.yul\":10702:11245   */\n      pop\n      pop\n      pop\n      jump\t// out\n        /* \"#utility.yul\":11251:11368   */\n    tag_105:\n        /* \"#utility.yul\":11305:11313   */\n      0x00\n        /* \"#utility.yul\":11355:11360   */\n      dup3\n        /* \"#utility.yul\":11349:11353   */\n      dup3\n        /* \"#utility.yul\":11345:11361   */\n      shr\n        /* \"#utility.yul\":11324:11361   */\n      swap1\n      pop\n        /* \"#utility.yul\":11251:11368   */\n      swap3\n      swap2\n      pop\n      pop\n      jump\t// out\n        /* \"#utility.yul\":11374:11543   */\n    tag_106:\n        /* \"#utility.yul\":11418:11424   */\n      0x00\n        /* \"#utility.yul\":11451:11502   */\n      tag_238\n        /* \"#utility.yul\":11499:11500   */\n      0x00\n        /* \"#utility.yul\":11495:11501   */\n      not\n        /* \"#utility.yul\":11487:11492   */\n      dup5\n        /* \"#utility.yul\":11484:11485   */\n      0x08\n        /* \"#utility.yul\":11480:11493   */\n      mul\n        /* \"#utility.yul\":11451:11502   */\n      tag_105\n      jump\t// in\n    tag_238:\n        /* \"#utility.yul\":11447:11503   */\n      not\n        /* \"#utility.yul\":11532:11536   */\n      dup1\n        /* \"#utility.yul\":11526:11530   */\n      dup4\n        /* \"#utility.yul\":11522:11537   */\n      and\n        /* \"#utility.yul\":11512:11537   */\n      swap2\n      pop\n        /* \"#utility.yul\":11425:11543   */\n      pop\n        /* \"#utility.yul\":11374:11543   */\n      swap3\n      swap2\n      pop\n      pop\n      jump\t// out\n        /* \"#utility.yul\":11548:11843   */\n    tag_107:\n        /* \"#utility.yul\":11624:11628   */\n      0x00\n        /* \"#utility.yul\":11770:11799   */\n      tag_240\n        /* \"#utility.yul\":11795:11798   */\n      dup4\n        /* \"#utility.yul\":11789:11793   */\n      dup4\n        /* \"#utility.yul\":11770:11799   */\n      tag_106\n      jump\t// in\n    tag_240:\n        /* \"#utility.yul\":11762:11799   */\n      swap2\n      pop\n        /* \"#utility.yul\":11832:11835   */\n      dup3\n        /* \"#utility.yul\":11829:11830   */\n      0x02\n        /* \"#utility.yul\":11825:11836   */\n      mul\n        /* \"#utility.yul\":11819:11823   */\n      dup3\n        /* \"#utility.yul\":11816:11837   */\n      or\n        /* \"#utility.yul\":11808:11837   */\n      swap1\n      pop\n        /* \"#utility.yul\":11548:11843   */\n      swap3\n      swap2\n      pop\n      pop\n      jump\t// out\n        /* \"#utility.yul\":11848:13243   */\n    tag_37:\n        /* \"#utility.yul\":11965:12002   */\n      tag_242\n        /* \"#utility.yul\":11998:12001   */\n      dup3\n        /* \"#utility.yul\":11965:12002   */\n      tag_85\n      jump\t// in\n    tag_242:\n        /* \"#utility.yul\":12067:12085   */\n      0xffffffffffffffff\n        /* \"#utility.yul\":12059:12065   */\n      dup2\n        /* \"#utility.yul\":12056:12086   */\n      gt\n        /* \"#utility.yul\":12053:12109   */\n      iszero\n      tag_243\n      jumpi\n        /* \"#utility.yul\":12089:12107   */\n      tag_244\n      tag_72\n      jump\t// in\n    tag_244:\n        /* \"#utility.yul\":12053:12109   */\n    tag_243:\n        /* \"#utility.yul\":12133:12171   */\n      tag_245\n        /* \"#utility.yul\":12165:12169   */\n      dup3\n        /* \"#utility.yul\":12159:12170   */\n      sload\n        /* \"#utility.yul\":12133:12171   */\n      tag_44\n      jump\t// in\n    tag_245:\n        /* \"#utility.yul\":12218:12285   */\n      tag_246\n        /* \"#utility.yul\":12278:12284   */\n      dup3\n        /* \"#utility.yul\":12270:12276   */\n      dup3\n        /* \"#utility.yul\":12264:12268   */\n      dup6\n        /* \"#utility.yul\":12218:12285   */\n      tag_104\n      jump\t// in\n    tag_246:\n        /* \"#utility.yul\":12312:12313   */\n      0x00\n        /* \"#utility.yul\":12336:12340   */\n      0x20\n        /* \"#utility.yul\":12323:12340   */\n      swap1\n      pop\n        /* \"#utility.yul\":12368:12370   */\n      0x1f\n        /* \"#utility.yul\":12360:12366   */\n      dup4\n        /* \"#utility.yul\":12357:12371   */\n      gt\n        /* \"#utility.yul\":12385:12386   */\n      0x01\n        /* \"#utility.yul\":12380:12998   */\n      dup2\n      eq\n      tag_248\n      jumpi\n        /* \"#utility.yul\":13042:13043   */\n      0x00\n        /* \"#utility.yul\":13059:13065   */\n      dup5\n        /* \"#utility.yul\":13056:13133   */\n      iszero\n      tag_249\n      jumpi\n        /* \"#utility.yul\":13108:13117   */\n      dup3\n        /* \"#utility.yul\":13103:13106   */\n      dup8\n        /* \"#utility.yul\":13099:13118   */\n      add\n        /* \"#utility.yul\":13093:13119   */\n      mload\n        /* \"#utility.yul\":13084:13119   */\n      swap1\n      pop\n        /* \"#utility.yul\":13056:13133   */\n    tag_249:\n        /* \"#utility.yul\":13159:13226   */\n      tag_250\n        /* \"#utility.yul\":13219:13225   */\n      dup6\n        /* \"#utility.yul\":13212:13217   */\n      dup3\n        /* \"#utility.yul\":13159:13226   */\n      tag_107\n      jump\t// in\n    tag_250:\n        /* \"#utility.yul\":13153:13157   */\n      dup7\n        /* \"#utility.yul\":13146:13227   */\n      sstore\n        /* \"#utility.yul\":13015:13237   */\n      pop\n        /* \"#utility.yul\":12350:13237   */\n      jump(tag_247)\n        /* \"#utility.yul\":12380:12998   */\n    tag_248:\n        /* \"#utility.yul\":12432:12436   */\n      0x1f\n        /* \"#utility.yul\":12428:12437   */\n      not\n        /* \"#utility.yul\":12420:12426   */\n      dup5\n        /* \"#utility.yul\":12416:12438   */\n      and\n        /* \"#utility.yul\":12466:12503   */\n      tag_251\n        /* \"#utility.yul\":12498:12502   */\n      dup7\n        /* \"#utility.yul\":12466:12503   */\n      tag_93\n      jump\t// in\n    tag_251:\n        /* \"#utility.yul\":12525:12526   */\n      0x00\n        /* \"#utility.yul\":12539:12747   */\n    tag_252:\n        /* \"#utility.yul\":12553:12560   */\n      dup3\n        /* \"#utility.yul\":12550:12551   */\n      dup2\n        /* \"#utility.yul\":12547:12561   */\n      lt\n        /* \"#utility.yul\":12539:12747   */\n      iszero\n      tag_254\n      jumpi\n        /* \"#utility.yul\":12632:12641   */\n      dup5\n        /* \"#utility.yul\":12627:12630   */\n      dup10\n        /* \"#utility.yul\":12623:12642   */\n      add\n        /* \"#utility.yul\":12617:12643   */\n      mload\n        /* \"#utility.yul\":12609:12615   */\n      dup3\n        /* \"#utility.yul\":12602:12644   */\n      sstore\n        /* \"#utility.yul\":12683:12684   */\n      0x01\n        /* \"#utility.yul\":12675:12681   */\n      dup3\n        /* \"#utility.yul\":12671:12685   */\n      add\n        /* \"#utility.yul\":12661:12685   */\n      swap2\n      pop\n        /* \"#utility.yul\":12730:12732   */\n      0x20\n        /* \"#utility.yul\":12719:12728   */\n      dup6\n        /* \"#utility.yul\":12715:12733   */\n      add\n        /* \"#utility.yul\":12702:12733   */\n      swap5\n      pop\n        /* \"#utility.yul\":12576:12580   */\n      0x20\n        /* \"#utility.yul\":12573:12574   */\n      dup2\n        /* \"#utility.yul\":12569:12581   */\n      add\n        /* \"#utility.yul\":12564:12581   */\n      swap1\n      pop\n        /* \"#utility.yul\":12539:12747   */\n      jump(tag_252)\n    tag_254:\n        /* \"#utility.yul\":12775:12781   */\n      dup7\n        /* \"#utility.yul\":12766:12773   */\n      dup4\n        /* \"#utility.yul\":12763:12782   */\n      lt\n        /* \"#utility.yul\":12760:12939   */\n      iszero\n      tag_255\n      jumpi\n        /* \"#utility.yul\":12833:12842   */\n      dup5\n        /* \"#utility.yul\":12828:12831   */\n      dup10\n        /* \"#utility.yul\":12824:12843   */\n      add\n        /* \"#utility.yul\":12818:12844   */\n      mload\n        /* \"#utility.yul\":12876:12924   */\n      tag_256\n        /* \"#utility.yul\":12918:12922   */\n      0x1f\n        /* \"#utility.yul\":12910:12916   */\n      dup10\n        /* \"#utility.yul\":12906:12923   */\n      and\n        /* \"#utility.yul\":12895:12904   */\n      dup3\n        /* \"#utility.yul\":12876:12924   */\n      tag_106\n      jump\t// in\n    tag_256:\n        /* \"#utility.yul\":12868:12874   */\n      dup4\n        /* \"#utility.yul\":12861:12925   */\n      sstore\n        /* \"#utility.yul\":12783:12939   */\n      pop\n        /* \"#utility.yul\":12760:12939   */\n    tag_255:\n        /* \"#utility.yul\":12985:12986   */\n      0x01\n        /* \"#utility.yul\":12981:12982   */\n      0x02\n        /* \"#utility.yul\":12973:12979   */\n      dup9\n        /* \"#utility.yul\":12969:12983   */\n      mul\n        /* \"#utility.yul\":12965:12987   */\n      add\n        /* \"#utility.yul\":12959:12963   */\n      dup9\n        /* \"#utility.yul\":12952:12988   */\n      sstore\n        /* \"#utility.yul\":12387:12998   */\n      pop\n      pop\n      pop\n        /* \"#utility.yul\":12350:13237   */\n    tag_247:\n      pop\n        /* \"#utility.yul\":11940:13243   */\n      pop\n      pop\n      pop\n        /* \"#utility.yul\":11848:13243   */\n      pop\n      pop\n      jump\t// out\n        /* \"#utility.yul\":13249:13984   */\n    tag_40:\n        /* \"#utility.yul\":13466:13470   */\n      0x00\n        /* \"#utility.yul\":13504:13507   */\n      0x80\n        /* \"#utility.yul\":13493:13502   */\n      dup3\n        /* \"#utility.yul\":13489:13508   */\n      add\n        /* \"#utility.yul\":13481:13508   */\n      swap1\n      pop\n        /* \"#utility.yul\":13518:13589   */\n      tag_258\n        /* \"#utility.yul\":13586:13587   */\n      0x00\n        /* \"#utility.yul\":13575:13584   */\n      dup4\n        /* \"#utility.yul\":13571:13588   */\n      add\n        /* \"#utility.yul\":13562:13568   */\n      dup8\n        /* \"#utility.yul\":13518:13589   */\n      tag_89\n      jump\t// in\n    tag_258:\n        /* \"#utility.yul\":13636:13645   */\n      dup2\n        /* \"#utility.yul\":13630:13634   */\n      dup2\n        /* \"#utility.yul\":13626:13646   */\n      sub\n        /* \"#utility.yul\":13621:13623   */\n      0x20\n        /* \"#utility.yul\":13610:13619   */\n      dup4\n        /* \"#utility.yul\":13606:13624   */\n      add\n        /* \"#utility.yul\":13599:13647   */\n      mstore\n        /* \"#utility.yul\":13664:13742   */\n      tag_259\n        /* \"#utility.yul\":13737:13741   */\n      dup2\n        /* \"#utility.yul\":13728:13734   */\n      dup7\n        /* \"#utility.yul\":13664:13742   */\n      tag_88\n      jump\t// in\n    tag_259:\n        /* \"#utility.yul\":13656:13742   */\n      swap1\n      pop\n        /* \"#utility.yul\":13752:13824   */\n      tag_260\n        /* \"#utility.yul\":13820:13822   */\n      0x40\n        /* \"#utility.yul\":13809:13818   */\n      dup4\n        /* \"#utility.yul\":13805:13823   */\n      add\n        /* \"#utility.yul\":13796:13802   */\n      dup6\n        /* \"#utility.yul\":13752:13824   */\n      tag_89\n      jump\t// in\n    tag_260:\n        /* \"#utility.yul\":13871:13880   */\n      dup2\n        /* \"#utility.yul\":13865:13869   */\n      dup2\n        /* \"#utility.yul\":13861:13881   */\n      sub\n        /* \"#utility.yul\":13856:13858   */\n      0x60\n        /* \"#utility.yul\":13845:13854   */\n      dup4\n        /* \"#utility.yul\":13841:13859   */\n      add\n        /* \"#utility.yul\":13834:13882   */\n      mstore\n        /* \"#utility.yul\":13899:13977   */\n      tag_261\n        /* \"#utility.yul\":13972:13976   */\n      dup2\n        /* \"#utility.yul\":13963:13969   */\n      dup5\n        /* \"#utility.yul\":13899:13977   */\n      tag_88\n      jump\t// in\n    tag_261:\n        /* \"#utility.yul\":13891:13977   */\n      swap1\n      pop\n        /* \"#utility.yul\":13249:13984   */\n      swap6\n      swap5\n      pop\n      pop\n      pop\n      pop\n      pop\n      jump\t// out\n        /* \"#utility.yul\":13990:14223   */\n    tag_108:\n        /* \"#utility.yul\":14130:14164   */\n      0x4e6577204f776e65722063616e206e6f74206265207468652073616d65206173\n        /* \"#utility.yul\":14126:14127   */\n      0x00\n        /* \"#utility.yul\":14118:14124   */\n      dup3\n        /* \"#utility.yul\":14114:14128   */\n      add\n        /* \"#utility.yul\":14107:14165   */\n      mstore\n        /* \"#utility.yul\":14199:14215   */\n      0x2063757272656e74206f776e6572000000000000000000000000000000000000\n        /* \"#utility.yul\":14194:14196   */\n      0x20\n        /* \"#utility.yul\":14186:14192   */\n      dup3\n        /* \"#utility.yul\":14182:14197   */\n      add\n        /* \"#utility.yul\":14175:14216   */\n      mstore\n        /* \"#utility.yul\":13990:14223   */\n      pop\n      jump\t// out\n        /* \"#utility.yul\":14229:14595   */\n    tag_109:\n        /* \"#utility.yul\":14371:14374   */\n      0x00\n        /* \"#utility.yul\":14392:14459   */\n      tag_264\n        /* \"#utility.yul\":14456:14458   */\n      0x2e\n        /* \"#utility.yul\":14451:14454   */\n      dup4\n        /* \"#utility.yul\":14392:14459   */\n      tag_86\n      jump\t// in\n    tag_264:\n        /* \"#utility.yul\":14385:14459   */\n      swap2\n      pop\n        /* \"#utility.yul\":14468:14561   */\n      tag_265\n        /* \"#utility.yul\":14557:14560   */\n      dup3\n        /* \"#utility.yul\":14468:14561   */\n      tag_108\n      jump\t// in\n    tag_265:\n        /* \"#utility.yul\":14586:14588   */\n      0x40\n        /* \"#utility.yul\":14581:14584   */\n      dup3\n        /* \"#utility.yul\":14577:14589   */\n      add\n        /* \"#utility.yul\":14570:14589   */\n      swap1\n      pop\n        /* \"#utility.yul\":14229:14595   */\n      swap2\n      swap1\n      pop\n      jump\t// out\n        /* \"#utility.yul\":14601:15020   */\n    tag_62:\n        /* \"#utility.yul\":14767:14771   */\n      0x00\n        /* \"#utility.yul\":14805:14807   */\n      0x20\n        /* \"#utility.yul\":14794:14803   */\n      dup3\n        /* \"#utility.yul\":14790:14808   */\n      add\n        /* \"#utility.yul\":14782:14808   */\n      swap1\n      pop\n        /* \"#utility.yul\":14854:14863   */\n      dup2\n        /* \"#utility.yul\":14848:14852   */\n      dup2\n        /* \"#utility.yul\":14844:14864   */\n      sub\n        /* \"#utility.yul\":14840:14841   */\n      0x00\n        /* \"#utility.yul\":14829:14838   */\n      dup4\n        /* \"#utility.yul\":14825:14842   */\n      add\n        /* \"#utility.yul\":14818:14865   */\n      mstore\n        /* \"#utility.yul\":14882:15013   */\n      tag_267\n        /* \"#utility.yul\":15008:15012   */\n      dup2\n        /* \"#utility.yul\":14882:15013   */\n      tag_109\n      jump\t// in\n    tag_267:\n        /* \"#utility.yul\":14874:15013   */\n      swap1\n      pop\n        /* \"#utility.yul\":14601:15020   */\n      swap2\n      swap1\n      pop\n      jump\t// out\n\n    auxdata: 0xa26469706673582212201373ce3ecbdfd8b991d12b96092b5306b29e9a313d5de55385cdcdfbffef6f2f64736f6c634300081a0033\n}\n",
				"bytecode": {
					"linkReferences": {},
					"object": "6080604052348015600e575f80fd5b50335f806101000a81548173ffffffffffffffffffffffffffffffffffffffff021916908373ffffffffffffffffffffffffffffffffffffffff160217905550610f0e8061005b5f395ff3fe608060405234801561000f575f80fd5b5060043610610055575f3560e01c806329304714146100595780632f54bf6e146100755780635893103a146100a557806376e8424f146100d5578063f2fde38b14610107575b5f80fd5b610073600480360381019061006e919061085e565b610123565b005b61008f600480360381019061008a9190610954565b6102a8565b60405161009c9190610999565b60405180910390f35b6100bf60048036038101906100ba91906109b2565b6102ff565b6040516100cc9190610999565b60405180910390f35b6100ef60048036038101906100ea91906109b2565b610365565b6040516100fe93929190610a5f565b60405180910390f35b610121600480360381019061011c9190610954565b610509565b005b5f8054906101000a900473ffffffffffffffffffffffffffffffffffffffff1673ffffffffffffffffffffffffffffffffffffffff163373ffffffffffffffffffffffffffffffffffffffff16146101b0576040517f08c379a00000000000000000000000000000000000000000000000000000000081526004016101a790610b12565b60405180910390fd5b60405180606001604052808481526020018381526020018281525060015f3373ffffffffffffffffffffffffffffffffffffffff1673ffffffffffffffffffffffffffffffffffffffff1681526020019081526020015f205f8681526020019081526020015f205f820151815f01908161022a9190610d2a565b5060208201518160010155604082015181600201908161024a9190610d2a565b509050503373ffffffffffffffffffffffffffffffffffffffff167fd09342d24a0bcd63618345e5a5f60d28caf4fc4bd64b02a16a9a0cd64721f8988585858560405161029a9493929190610df9565b60405180910390a250505050565b5f805f9054906101000a900473ffffffffffffffffffffffffffffffffffffffff1673ffffffffffffffffffffffffffffffffffffffff168273ffffffffffffffffffffffffffffffffffffffff16149050919050565b5f8060015f8573ffffffffffffffffffffffffffffffffffffffff1673ffffffffffffffffffffffffffffffffffffffff1681526020019081526020015f205f8481526020019081526020015f205f01805461035a90610b5d565b905011905092915050565b60605f60605f60015f8773ffffffffffffffffffffffffffffffffffffffff1673ffffffffffffffffffffffffffffffffffffffff1681526020019081526020015f205f8681526020019081526020015f206040518060600160405290815f820180546103d190610b5d565b80601f01602080910402602001604051908101604052809291908181526020018280546103fd90610b5d565b80156104485780601f1061041f57610100808354040283529160200191610448565b820191905f5260205f20905b81548152906001019060200180831161042b57829003601f168201915b505050505081526020016001820154815260200160028201805461046b90610b5d565b80601f016020809104026020016040519081016040528092919081815260200182805461049790610b5d565b80156104e25780601f106104b9576101008083540402835291602001916104e2565b820191905f5260205f20905b8154815290600101906020018083116104c557829003601f168201915b5050505050815250509050805f015181602001518260400151935093509350509250925092565b5f8054906101000a900473ffffffffffffffffffffffffffffffffffffffff1673ffffffffffffffffffffffffffffffffffffffff163373ffffffffffffffffffffffffffffffffffffffff1614610596576040517f08c379a000000000000000000000000000000000000000000000000000000000815260040161058d90610b12565b60405180910390fd5b5f8054906101000a900473ffffffffffffffffffffffffffffffffffffffff1673ffffffffffffffffffffffffffffffffffffffff168173ffffffffffffffffffffffffffffffffffffffff1603610623576040517f08c379a000000000000000000000000000000000000000000000000000000000815260040161061a90610eba565b60405180910390fd5b8073ffffffffffffffffffffffffffffffffffffffff165f8054906101000a900473ffffffffffffffffffffffffffffffffffffffff1673ffffffffffffffffffffffffffffffffffffffff167f8be0079c531659141344cd1fd0a4f28419497f9722a3daafe3b4186f6b6457e060405160405180910390a3805f806101000a81548173ffffffffffffffffffffffffffffffffffffffff021916908373ffffffffffffffffffffffffffffffffffffffff16021790555050565b5f604051905090565b5f80fd5b5f80fd5b5f819050919050565b610701816106ef565b811461070b575f80fd5b50565b5f8135905061071c816106f8565b92915050565b5f80fd5b5f80fd5b5f601f19601f8301169050919050565b7f4e487b71000000000000000000000000000000000000000000000000000000005f52604160045260245ffd5b6107708261072a565b810181811067ffffffffffffffff8211171561078f5761078e61073a565b5b80604052505050565b5f6107a16106de565b90506107ad8282610767565b919050565b5f67ffffffffffffffff8211156107cc576107cb61073a565b5b6107d58261072a565b9050602081019050919050565b828183375f83830152505050565b5f6108026107fd846107b2565b610798565b90508281526020810184848401111561081e5761081d610726565b5b6108298482856107e2565b509392505050565b5f82601f83011261084557610844610722565b5b81356108558482602086016107f0565b91505092915050565b5f805f8060808587031215610876576108756106e7565b5b5f6108838782880161070e565b945050602085013567ffffffffffffffff8111156108a4576108a36106eb565b5b6108b087828801610831565b93505060406108c18782880161070e565b925050606085013567ffffffffffffffff8111156108e2576108e16106eb565b5b6108ee87828801610831565b91505092959194509250565b5f73ffffffffffffffffffffffffffffffffffffffff82169050919050565b5f610923826108fa565b9050919050565b61093381610919565b811461093d575f80fd5b50565b5f8135905061094e8161092a565b92915050565b5f60208284031215610969576109686106e7565b5b5f61097684828501610940565b91505092915050565b5f8115159050919050565b6109938161097f565b82525050565b5f6020820190506109ac5f83018461098a565b92915050565b5f80604083850312156109c8576109c76106e7565b5b5f6109d585828601610940565b92505060206109e68582860161070e565b9150509250929050565b5f81519050919050565b5f82825260208201905092915050565b8281835e5f83830152505050565b5f610a22826109f0565b610a2c81856109fa565b9350610a3c818560208601610a0a565b610a458161072a565b840191505092915050565b610a59816106ef565b82525050565b5f6060820190508181035f830152610a778186610a18565b9050610a866020830185610a50565b8181036040830152610a988184610a18565b9050949350505050565b7f4f6e6c7920746865206f776e657220697320616c6c6f77656420746f207065725f8201527f666f726d2074686973207472616e73616374696f6e0000000000000000000000602082015250565b5f610afc6035836109fa565b9150610b0782610aa2565b604082019050919050565b5f6020820190508181035f830152610b2981610af0565b9050919050565b7f4e487b71000000000000000000000000000000000000000000000000000000005f52602260045260245ffd5b5f6002820490506001821680610b7457607f821691505b602082108103610b8757610b86610b30565b5b50919050565b5f819050815f5260205f209050919050565b5f6020601f8301049050919050565b5f82821b905092915050565b5f60088302610be97fffffffffffffffffffffffffffffffffffffffffffffffffffffffffffffffff82610bae565b610bf38683610bae565b95508019841693508086168417925050509392505050565b5f819050919050565b5f610c2e610c29610c24846106ef565b610c0b565b6106ef565b9050919050565b5f819050919050565b610c4783610c14565b610c5b610c5382610c35565b848454610bba565b825550505050565b5f90565b610c6f610c63565b610c7a818484610c3e565b505050565b5b81811015610c9d57610c925f82610c67565b600181019050610c80565b5050565b601f821115610ce257610cb381610b8d565b610cbc84610b9f565b81016020851015610ccb578190505b610cdf610cd785610b9f565b830182610c7f565b50505b505050565b5f82821c905092915050565b5f610d025f1984600802610ce7565b1980831691505092915050565b5f610d1a8383610cf3565b9150826002028217905092915050565b610d33826109f0565b67ffffffffffffffff811115610d4c57610d4b61073a565b5b610d568254610b5d565b610d61828285610ca1565b5f60209050601f831160018114610d92575f8415610d80578287015190505b610d8a8582610d0f565b865550610df1565b601f198416610da086610b8d565b5f5b82811015610dc757848901518255600182019150602085019450602081019050610da2565b86831015610de45784890151610de0601f891682610cf3565b8355505b6001600288020188555050505b505050505050565b5f608082019050610e0c5f830187610a50565b8181036020830152610e1e8186610a18565b9050610e2d6040830185610a50565b8181036060830152610e3f8184610a18565b905095945050505050565b7f4e6577204f776e65722063616e206e6f74206265207468652073616d652061735f8201527f2063757272656e74206f776e6572000000000000000000000000000000000000602082015250565b5f610ea4602e836109fa565b9150610eaf82610e4a565b604082019050919050565b5f6020820190508181035f830152610ed181610e98565b905091905056fea26469706673582212201373ce3ecbdfd8b991d12b96092b5306b29e9a313d5de55385cdcdfbffef6f2f64736f6c634300081a0033",
					"opcodes": "PUSH1 0x80 PUSH1 0x40 MSTORE CALLVALUE DUP1 ISZERO PUSH1 0xE JUMPI PUSH0 DUP1 REVERT JUMPDEST POP CALLER PUSH0 DUP1 PUSH2 0x100 EXP DUP2 SLOAD DUP2 PUSH20 0xFFFFFFFFFFFFFFFFFFFFFFFFFFFFFFFFFFFFFFFF MUL NOT AND SWAP1 DUP4 PUSH20 0xFFFFFFFFFFFFFFFFFFFFFFFFFFFFFFFFFFFFFFFF AND MUL OR SWAP1 SSTORE POP PUSH2 0xF0E DUP1 PUSH2 0x5B PUSH0 CODECOPY PUSH0 RETURN INVALID PUSH1 0x80 PUSH1 0x40 MSTORE CALLVALUE DUP1 ISZERO PUSH2 0xF JUMPI PUSH0 DUP1 REVERT JUMPDEST POP PUSH1 0x4 CALLDATASIZE LT PUSH2 0x55 JUMPI PUSH0 CALLDATALOAD PUSH1 0xE0 SHR DUP1 PUSH4 0x29304714 EQ PUSH2 0x59 JUMPI DUP1 PUSH4 0x2F54BF6E EQ PUSH2 0x75 JUMPI DUP1 PUSH4 0x5893103A EQ PUSH2 0xA5 JUMPI DUP1 PUSH4 0x76E8424F EQ PUSH2 0xD5 JUMPI DUP1 PUSH4 0xF2FDE38B EQ PUSH2 0x107 JUMPI JUMPDEST PUSH0 DUP1 REVERT JUMPDEST PUSH2 0x73 PUSH1 0x4 DUP1 CALLDATASIZE SUB DUP2 ADD SWAP1 PUSH2 0x6E SWAP2 SWAP1 PUSH2 0x85E JUMP JUMPDEST PUSH2 0x123 JUMP JUMPDEST STOP JUMPDEST PUSH2 0x8F PUSH1 0x4 DUP1 CALLDATASIZE SUB DUP2 ADD SWAP1 PUSH2 0x8A SWAP2 SWAP1 PUSH2 0x954 JUMP JUMPDEST PUSH2 0x2A8 JUMP JUMPDEST PUSH1 0x40 MLOAD PUSH2 0x9C SWAP2 SWAP1 PUSH2 0x999 JUMP JUMPDEST PUSH1 0x40 MLOAD DUP1 SWAP2 SUB SWAP1 RETURN JUMPDEST PUSH2 0xBF PUSH1 0x4 DUP1 CALLDATASIZE SUB DUP2 ADD SWAP1 PUSH2 0xBA SWAP2 SWAP1 PUSH2 0x9B2 JUMP JUMPDEST PUSH2 0x2FF JUMP JUMPDEST PUSH1 0x40 MLOAD PUSH2 0xCC SWAP2 SWAP1 PUSH2 0x999 JUMP JUMPDEST PUSH1 0x40 MLOAD DUP1 SWAP2 SUB SWAP1 RETURN JUMPDEST PUSH2 0xEF PUSH1 0x4 DUP1 CALLDATASIZE SUB DUP2 ADD SWAP1 PUSH2 0xEA SWAP2 SWAP1 PUSH2 0x9B2 JUMP JUMPDEST PUSH2 0x365 JUMP JUMPDEST PUSH1 0x40 MLOAD PUSH2 0xFE SWAP4 SWAP3 SWAP2 SWAP1 PUSH2 0xA5F JUMP JUMPDEST PUSH1 0x40 MLOAD DUP1 SWAP2 SUB SWAP1 RETURN JUMPDEST PUSH2 0x121 PUSH1 0x4 DUP1 CALLDATASIZE SUB DUP2 ADD SWAP1 PUSH2 0x11C SWAP2 SWAP1 PUSH2 0x954 JUMP JUMPDEST PUSH2 0x509 JUMP JUMPDEST STOP JUMPDEST PUSH0 DUP1 SLOAD SWAP1 PUSH2 0x100 EXP SWAP1 DIV PUSH20 0xFFFFFFFFFFFFFFFFFFFFFFFFFFFFFFFFFFFFFFFF AND PUSH20 0xFFFFFFFFFFFFFFFFFFFFFFFFFFFFFFFFFFFFFFFF AND CALLER PUSH20 0xFFFFFFFFFFFFFFFFFFFFFFFFFFFFFFFFFFFFFFFF AND EQ PUSH2 0x1B0 JUMPI PUSH1 0x40 MLOAD PUSH32 0x8C379A000000000000000000000000000000000000000000000000000000000 DUP2 MSTORE PUSH1 0x4 ADD PUSH2 0x1A7 SWAP1 PUSH2 0xB12 JUMP JUMPDEST PUSH1 0x40 MLOAD DUP1 SWAP2 SUB SWAP1 REVERT JUMPDEST PUSH1 0x40 MLOAD DUP1 PUSH1 0x60 ADD PUSH1 0x40 MSTORE DUP1 DUP5 DUP2 MSTORE PUSH1 0x20 ADD DUP4 DUP2 MSTORE PUSH1 0x20 ADD DUP3 DUP2 MSTORE POP PUSH1 0x1 PUSH0 CALLER PUSH20 0xFFFFFFFFFFFFFFFFFFFFFFFFFFFFFFFFFFFFFFFF AND PUSH20 0xFFFFFFFFFFFFFFFFFFFFFFFFFFFFFFFFFFFFFFFF AND DUP2 MSTORE PUSH1 0x20 ADD SWAP1 DUP2 MSTORE PUSH1 0x20 ADD PUSH0 KECCAK256 PUSH0 DUP7 DUP2 MSTORE PUSH1 0x20 ADD SWAP1 DUP2 MSTORE PUSH1 0x20 ADD PUSH0 KECCAK256 PUSH0 DUP3 ADD MLOAD DUP2 PUSH0 ADD SWAP1 DUP2 PUSH2 0x22A SWAP2 SWAP1 PUSH2 0xD2A JUMP JUMPDEST POP PUSH1 0x20 DUP3 ADD MLOAD DUP2 PUSH1 0x1 ADD SSTORE PUSH1 0x40 DUP3 ADD MLOAD DUP2 PUSH1 0x2 ADD SWAP1 DUP2 PUSH2 0x24A SWAP2 SWAP1 PUSH2 0xD2A JUMP JUMPDEST POP SWAP1 POP POP CALLER PUSH20 0xFFFFFFFFFFFFFFFFFFFFFFFFFFFFFFFFFFFFFFFF AND PUSH32 0xD09342D24A0BCD63618345E5A5F60D28CAF4FC4BD64B02A16A9A0CD64721F898 DUP6 DUP6 DUP6 DUP6 PUSH1 0x40 MLOAD PUSH2 0x29A SWAP5 SWAP4 SWAP3 SWAP2 SWAP1 PUSH2 0xDF9 JUMP JUMPDEST PUSH1 0x40 MLOAD DUP1 SWAP2 SUB SWAP1 LOG2 POP POP POP POP JUMP JUMPDEST PUSH0 DUP1 PUSH0 SWAP1 SLOAD SWAP1 PUSH2 0x100 EXP SWAP1 DIV PUSH20 0xFFFFFFFFFFFFFFFFFFFFFFFFFFFFFFFFFFFFFFFF AND PUSH20 0xFFFFFFFFFFFFFFFFFFFFFFFFFFFFFFFFFFFFFFFF AND DUP3 PUSH20 0xFFFFFFFFFFFFFFFFFFFFFFFFFFFFFFFFFFFFFFFF AND EQ SWAP1 POP SWAP2 SWAP1 POP JUMP JUMPDEST PUSH0 DUP1 PUSH1 0x1 PUSH0 DUP6 PUSH20 0xFFFFFFFFFFFFFFFFFFFFFFFFFFFFFFFFFFFFFFFF AND PUSH20 0xFFFFFFFFFFFFFFFFFFFFFFFFFFFFFFFFFFFFFFFF AND DUP2 MSTORE PUSH1 0x20 ADD SWAP1 DUP2 MSTORE PUSH1 0x20 ADD PUSH0 KECCAK256 PUSH0 DUP5 DUP2 MSTORE PUSH1 0x20 ADD SWAP1 DUP2 MSTORE PUSH1 0x20 ADD PUSH0 KECCAK256 PUSH0 ADD DUP1 SLOAD PUSH2 0x35A SWAP1 PUSH2 0xB5D JUMP JUMPDEST SWAP1 POP GT SWAP1 POP SWAP3 SWAP2 POP POP JUMP JUMPDEST PUSH1 0x60 PUSH0 PUSH1 0x60 PUSH0 PUSH1 0x1 PUSH0 DUP8 PUSH20 0xFFFFFFFFFFFFFFFFFFFFFFFFFFFFFFFFFFFFFFFF AND PUSH20 0xFFFFFFFFFFFFFFFFFFFFFFFFFFFFFFFFFFFFFFFF AND DUP2 MSTORE PUSH1 0x20 ADD SWAP1 DUP2 MSTORE PUSH1 0x20 ADD PUSH0 KECCAK256 PUSH0 DUP7 DUP2 MSTORE PUSH1 0x20 ADD SWAP1 DUP2 MSTORE PUSH1 0x20 ADD PUSH0 KECCAK256 PUSH1 0x40 MLOAD DUP1 PUSH1 0x60 ADD PUSH1 0x40 MSTORE SWAP1 DUP2 PUSH0 DUP3 ADD DUP1 SLOAD PUSH2 0x3D1 SWAP1 PUSH2 0xB5D JUMP JUMPDEST DUP1 PUSH1 0x1F ADD PUSH1 0x20 DUP1 SWAP2 DIV MUL PUSH1 0x20 ADD PUSH1 0x40 MLOAD SWAP1 DUP2 ADD PUSH1 0x40 MSTORE DUP1 SWAP3 SWAP2 SWAP1 DUP2 DUP2 MSTORE PUSH1 0x20 ADD DUP3 DUP1 SLOAD PUSH2 0x3FD SWAP1 PUSH2 0xB5D JUMP JUMPDEST DUP1 ISZERO PUSH2 0x448 JUMPI DUP1 PUSH1 0x1F LT PUSH2 0x41F JUMPI PUSH2 0x100 DUP1 DUP4 SLOAD DIV MUL DUP4 MSTORE SWAP2 PUSH1 0x20 ADD SWAP2 PUSH2 0x448 JUMP JUMPDEST DUP3 ADD SWAP2 SWAP1 PUSH0 MSTORE PUSH1 0x20 PUSH0 KECCAK256 SWAP1 JUMPDEST DUP2 SLOAD DUP2 MSTORE SWAP1 PUSH1 0x1 ADD SWAP1 PUSH1 0x20 ADD DUP1 DUP4 GT PUSH2 0x42B JUMPI DUP3 SWAP1 SUB PUSH1 0x1F AND DUP3 ADD SWAP2 JUMPDEST POP POP POP POP POP DUP2 MSTORE PUSH1 0x20 ADD PUSH1 0x1 DUP3 ADD SLOAD DUP2 MSTORE PUSH1 0x20 ADD PUSH1 0x2 DUP3 ADD DUP1 SLOAD PUSH2 0x46B SWAP1 PUSH2 0xB5D JUMP JUMPDEST DUP1 PUSH1 0x1F ADD PUSH1 0x20 DUP1 SWAP2 DIV MUL PUSH1 0x20 ADD PUSH1 0x40 MLOAD SWAP1 DUP2 ADD PUSH1 0x40 MSTORE DUP1 SWAP3 SWAP2 SWAP1 DUP2 DUP2 MSTORE PUSH1 0x20 ADD DUP3 DUP1 SLOAD PUSH2 0x497 SWAP1 PUSH2 0xB5D JUMP JUMPDEST DUP1 ISZERO PUSH2 0x4E2 JUMPI DUP1 PUSH1 0x1F LT PUSH2 0x4B9 JUMPI PUSH2 0x100 DUP1 DUP4 SLOAD DIV MUL DUP4 MSTORE SWAP2 PUSH1 0x20 ADD SWAP2 PUSH2 0x4E2 JUMP JUMPDEST DUP3 ADD SWAP2 SWAP1 PUSH0 MSTORE PUSH1 0x20 PUSH0 KECCAK256 SWAP1 JUMPDEST DUP2 SLOAD DUP2 MSTORE SWAP1 PUSH1 0x1 ADD SWAP1 PUSH1 0x20 ADD DUP1 DUP4 GT PUSH2 0x4C5 JUMPI DUP3 SWAP1 SUB PUSH1 0x1F AND DUP3 ADD SWAP2 JUMPDEST POP POP POP POP POP DUP2 MSTORE POP POP SWAP1 POP DUP1 PUSH0 ADD MLOAD DUP2 PUSH1 0x20 ADD MLOAD DUP3 PUSH1 0x40 ADD MLOAD SWAP4 POP SWAP4 POP SWAP4 POP POP SWAP3 POP SWAP3 POP SWAP3 JUMP JUMPDEST PUSH0 DUP1 SLOAD SWAP1 PUSH2 0x100 EXP SWAP1 DIV PUSH20 0xFFFFFFFFFFFFFFFFFFFFFFFFFFFFFFFFFFFFFFFF AND PUSH20 0xFFFFFFFFFFFFFFFFFFFFFFFFFFFFFFFFFFFFFFFF AND CALLER PUSH20 0xFFFFFFFFFFFFFFFFFFFFFFFFFFFFFFFFFFFFFFFF AND EQ PUSH2 0x596 JUMPI PUSH1 0x40 MLOAD PUSH32 0x8C379A000000000000000000000000000000000000000000000000000000000 DUP2 MSTORE PUSH1 0x4 ADD PUSH2 0x58D SWAP1 PUSH2 0xB12 JUMP JUMPDEST PUSH1 0x40 MLOAD DUP1 SWAP2 SUB SWAP1 REVERT JUMPDEST PUSH0 DUP1 SLOAD SWAP1 PUSH2 0x100 EXP SWAP1 DIV PUSH20 0xFFFFFFFFFFFFFFFFFFFFFFFFFFFFFFFFFFFFFFFF AND PUSH20 0xFFFFFFFFFFFFFFFFFFFFFFFFFFFFFFFFFFFFFFFF AND DUP2 PUSH20 0xFFFFFFFFFFFFFFFFFFFFFFFFFFFFFFFFFFFFFFFF AND SUB PUSH2 0x623 JUMPI PUSH1 0x40 MLOAD PUSH32 0x8C379A000000000000000000000000000000000000000000000000000000000 DUP2 MSTORE PUSH1 0x4 ADD PUSH2 0x61A SWAP1 PUSH2 0xEBA JUMP JUMPDEST PUSH1 0x40 MLOAD DUP1 SWAP2 SUB SWAP1 REVERT JUMPDEST DUP1 PUSH20 0xFFFFFFFFFFFFFFFFFFFFFFFFFFFFFFFFFFFFFFFF AND PUSH0 DUP1 SLOAD SWAP1 PUSH2 0x100 EXP SWAP1 DIV PUSH20 0xFFFFFFFFFFFFFFFFFFFFFFFFFFFFFFFFFFFFFFFF AND PUSH20 0xFFFFFFFFFFFFFFFFFFFFFFFFFFFFFFFFFFFFFFFF AND PUSH32 0x8BE0079C531659141344CD1FD0A4F28419497F9722A3DAAFE3B4186F6B6457E0 PUSH1 0x40 MLOAD PUSH1 0x40 MLOAD DUP1 SWAP2 SUB SWAP1 LOG3 DUP1 PUSH0 DUP1 PUSH2 0x100 EXP DUP2 SLOAD DUP2 PUSH20 0xFFFFFFFFFFFFFFFFFFFFFFFFFFFFFFFFFFFFFFFF MUL NOT AND SWAP1 DUP4 PUSH20 0xFFFFFFFFFFFFFFFFFFFFFFFFFFFFFFFFFFFFFFFF AND MUL OR SWAP1 SSTORE POP POP JUMP JUMPDEST PUSH0 PUSH1 0x40 MLOAD SWAP1 POP SWAP1 JUMP JUMPDEST PUSH0 DUP1 REVERT JUMPDEST PUSH0 DUP1 REVERT JUMPDEST PUSH0 DUP2 SWAP1 POP SWAP2 SWAP1 POP JUMP JUMPDEST PUSH2 0x701 DUP2 PUSH2 0x6EF JUMP JUMPDEST DUP2 EQ PUSH2 0x70B JUMPI PUSH0 DUP1 REVERT JUMPDEST POP JUMP JUMPDEST PUSH0 DUP2 CALLDATALOAD SWAP1 POP PUSH2 0x71C DUP2 PUSH2 0x6F8 JUMP JUMPDEST SWAP3 SWAP2 POP POP JUMP JUMPDEST PUSH0 DUP1 REVERT JUMPDEST PUSH0 DUP1 REVERT JUMPDEST PUSH0 PUSH1 0x1F NOT PUSH1 0x1F DUP4 ADD AND SWAP1 POP SWAP2 SWAP1 POP JUMP JUMPDEST PUSH32 0x4E487B7100000000000000000000000000000000000000000000000000000000 PUSH0 MSTORE PUSH1 0x41 PUSH1 0x4 MSTORE PUSH1 0x24 PUSH0 REVERT JUMPDEST PUSH2 0x770 DUP3 PUSH2 0x72A JUMP JUMPDEST DUP2 ADD DUP2 DUP2 LT PUSH8 0xFFFFFFFFFFFFFFFF DUP3 GT OR ISZERO PUSH2 0x78F JUMPI PUSH2 0x78E PUSH2 0x73A JUMP JUMPDEST JUMPDEST DUP1 PUSH1 0x40 MSTORE POP POP POP JUMP JUMPDEST PUSH0 PUSH2 0x7A1 PUSH2 0x6DE JUMP JUMPDEST SWAP1 POP PUSH2 0x7AD DUP3 DUP3 PUSH2 0x767 JUMP JUMPDEST SWAP2 SWAP1 POP JUMP JUMPDEST PUSH0 PUSH8 0xFFFFFFFFFFFFFFFF DUP3 GT ISZERO PUSH2 0x7CC JUMPI PUSH2 0x7CB PUSH2 0x73A JUMP JUMPDEST JUMPDEST PUSH2 0x7D5 DUP3 PUSH2 0x72A JUMP JUMPDEST SWAP1 POP PUSH1 0x20 DUP2 ADD SWAP1 POP SWAP2 SWAP1 POP JUMP JUMPDEST DUP3 DUP2 DUP4 CALLDATACOPY PUSH0 DUP4 DUP4 ADD MSTORE POP POP POP JUMP JUMPDEST PUSH0 PUSH2 0x802 PUSH2 0x7FD DUP5 PUSH2 0x7B2 JUMP JUMPDEST PUSH2 0x798 JUMP JUMPDEST SWAP1 POP DUP3 DUP2 MSTORE PUSH1 0x20 DUP2 ADD DUP5 DUP5 DUP5 ADD GT ISZERO PUSH2 0x81E JUMPI PUSH2 0x81D PUSH2 0x726 JUMP JUMPDEST JUMPDEST PUSH2 0x829 DUP5 DUP3 DUP6 PUSH2 0x7E2 JUMP JUMPDEST POP SWAP4 SWAP3 POP POP POP JUMP JUMPDEST PUSH0 DUP3 PUSH1 0x1F DUP4 ADD SLT PUSH2 0x845 JUMPI PUSH2 0x844 PUSH2 0x722 JUMP JUMPDEST JUMPDEST DUP2 CALLDATALOAD PUSH2 0x855 DUP5 DUP3 PUSH1 0x20 DUP7 ADD PUSH2 0x7F0 JUMP JUMPDEST SWAP2 POP POP SWAP3 SWAP2 POP POP JUMP JUMPDEST PUSH0 DUP1 PUSH0 DUP1 PUSH1 0x80 DUP6 DUP8 SUB SLT ISZERO PUSH2 0x876 JUMPI PUSH2 0x875 PUSH2 0x6E7 JUMP JUMPDEST JUMPDEST PUSH0 PUSH2 0x883 DUP8 DUP3 DUP9 ADD PUSH2 0x70E JUMP JUMPDEST SWAP5 POP POP PUSH1 0x20 DUP6 ADD CALLDATALOAD PUSH8 0xFFFFFFFFFFFFFFFF DUP2 GT ISZERO PUSH2 0x8A4 JUMPI PUSH2 0x8A3 PUSH2 0x6EB JUMP JUMPDEST JUMPDEST PUSH2 0x8B0 DUP8 DUP3 DUP9 ADD PUSH2 0x831 JUMP JUMPDEST SWAP4 POP POP PUSH1 0x40 PUSH2 0x8C1 DUP8 DUP3 DUP9 ADD PUSH2 0x70E JUMP JUMPDEST SWAP3 POP POP PUSH1 0x60 DUP6 ADD CALLDATALOAD PUSH8 0xFFFFFFFFFFFFFFFF DUP2 GT ISZERO PUSH2 0x8E2 JUMPI PUSH2 0x8E1 PUSH2 0x6EB JUMP JUMPDEST JUMPDEST PUSH2 0x8EE DUP8 DUP3 DUP9 ADD PUSH2 0x831 JUMP JUMPDEST SWAP2 POP POP SWAP3 SWAP6 SWAP2 SWAP5 POP SWAP3 POP JUMP JUMPDEST PUSH0 PUSH20 0xFFFFFFFFFFFFFFFFFFFFFFFFFFFFFFFFFFFFFFFF DUP3 AND SWAP1 POP SWAP2 SWAP1 POP JUMP JUMPDEST PUSH0 PUSH2 0x923 DUP3 PUSH2 0x8FA JUMP JUMPDEST SWAP1 POP SWAP2 SWAP1 POP JUMP JUMPDEST PUSH2 0x933 DUP2 PUSH2 0x919 JUMP JUMPDEST DUP2 EQ PUSH2 0x93D JUMPI PUSH0 DUP1 REVERT JUMPDEST POP JUMP JUMPDEST PUSH0 DUP2 CALLDATALOAD SWAP1 POP PUSH2 0x94E DUP2 PUSH2 0x92A JUMP JUMPDEST SWAP3 SWAP2 POP POP JUMP JUMPDEST PUSH0 PUSH1 0x20 DUP3 DUP5 SUB SLT ISZERO PUSH2 0x969 JUMPI PUSH2 0x968 PUSH2 0x6E7 JUMP JUMPDEST JUMPDEST PUSH0 PUSH2 0x976 DUP5 DUP3 DUP6 ADD PUSH2 0x940 JUMP JUMPDEST SWAP2 POP POP SWAP3 SWAP2 POP POP JUMP JUMPDEST PUSH0 DUP2 ISZERO ISZERO SWAP1 POP SWAP2 SWAP1 POP JUMP JUMPDEST PUSH2 0x993 DUP2 PUSH2 0x97F JUMP JUMPDEST DUP3 MSTORE POP POP JUMP JUMPDEST PUSH0 PUSH1 0x20 DUP3 ADD SWAP1 POP PUSH2 0x9AC PUSH0 DUP4 ADD DUP5 PUSH2 0x98A JUMP JUMPDEST SWAP3 SWAP2 POP POP JUMP JUMPDEST PUSH0 DUP1 PUSH1 0x40 DUP4 DUP6 SUB SLT ISZERO PUSH2 0x9C8 JUMPI PUSH2 0x9C7 PUSH2 0x6E7 JUMP JUMPDEST JUMPDEST PUSH0 PUSH2 0x9D5 DUP6 DUP3 DUP7 ADD PUSH2 0x940 JUMP JUMPDEST SWAP3 POP POP PUSH1 0x20 PUSH2 0x9E6 DUP6 DUP3 DUP7 ADD PUSH2 0x70E JUMP JUMPDEST SWAP2 POP POP SWAP3 POP SWAP3 SWAP1 POP JUMP JUMPDEST PUSH0 DUP2 MLOAD SWAP1 POP SWAP2 SWAP1 POP JUMP JUMPDEST PUSH0 DUP3 DUP3 MSTORE PUSH1 0x20 DUP3 ADD SWAP1 POP SWAP3 SWAP2 POP POP JUMP JUMPDEST DUP3 DUP2 DUP4 MCOPY PUSH0 DUP4 DUP4 ADD MSTORE POP POP POP JUMP JUMPDEST PUSH0 PUSH2 0xA22 DUP3 PUSH2 0x9F0 JUMP JUMPDEST PUSH2 0xA2C DUP2 DUP6 PUSH2 0x9FA JUMP JUMPDEST SWAP4 POP PUSH2 0xA3C DUP2 DUP6 PUSH1 0x20 DUP7 ADD PUSH2 0xA0A JUMP JUMPDEST PUSH2 0xA45 DUP2 PUSH2 0x72A JUMP JUMPDEST DUP5 ADD SWAP2 POP POP SWAP3 SWAP2 POP POP JUMP JUMPDEST PUSH2 0xA59 DUP2 PUSH2 0x6EF JUMP JUMPDEST DUP3 MSTORE POP POP JUMP JUMPDEST PUSH0 PUSH1 0x60 DUP3 ADD SWAP1 POP DUP2 DUP2 SUB PUSH0 DUP4 ADD MSTORE PUSH2 0xA77 DUP2 DUP7 PUSH2 0xA18 JUMP JUMPDEST SWAP1 POP PUSH2 0xA86 PUSH1 0x20 DUP4 ADD DUP6 PUSH2 0xA50 JUMP JUMPDEST DUP2 DUP2 SUB PUSH1 0x40 DUP4 ADD MSTORE PUSH2 0xA98 DUP2 DUP5 PUSH2 0xA18 JUMP JUMPDEST SWAP1 POP SWAP5 SWAP4 POP POP POP POP JUMP JUMPDEST PUSH32 0x4F6E6C7920746865206F776E657220697320616C6C6F77656420746F20706572 PUSH0 DUP3 ADD MSTORE PUSH32 0x666F726D2074686973207472616E73616374696F6E0000000000000000000000 PUSH1 0x20 DUP3 ADD MSTORE POP JUMP JUMPDEST PUSH0 PUSH2 0xAFC PUSH1 0x35 DUP4 PUSH2 0x9FA JUMP JUMPDEST SWAP2 POP PUSH2 0xB07 DUP3 PUSH2 0xAA2 JUMP JUMPDEST PUSH1 0x40 DUP3 ADD SWAP1 POP SWAP2 SWAP1 POP JUMP JUMPDEST PUSH0 PUSH1 0x20 DUP3 ADD SWAP1 POP DUP2 DUP2 SUB PUSH0 DUP4 ADD MSTORE PUSH2 0xB29 DUP2 PUSH2 0xAF0 JUMP JUMPDEST SWAP1 POP SWAP2 SWAP1 POP JUMP JUMPDEST PUSH32 0x4E487B7100000000000000000000000000000000000000000000000000000000 PUSH0 MSTORE PUSH1 0x22 PUSH1 0x4 MSTORE PUSH1 0x24 PUSH0 REVERT JUMPDEST PUSH0 PUSH1 0x2 DUP3 DIV SWAP1 POP PUSH1 0x1 DUP3 AND DUP1 PUSH2 0xB74 JUMPI PUSH1 0x7F DUP3 AND SWAP2 POP JUMPDEST PUSH1 0x20 DUP3 LT DUP2 SUB PUSH2 0xB87 JUMPI PUSH2 0xB86 PUSH2 0xB30 JUMP JUMPDEST JUMPDEST POP SWAP2 SWAP1 POP JUMP JUMPDEST PUSH0 DUP2 SWAP1 POP DUP2 PUSH0 MSTORE PUSH1 0x20 PUSH0 KECCAK256 SWAP1 POP SWAP2 SWAP1 POP JUMP JUMPDEST PUSH0 PUSH1 0x20 PUSH1 0x1F DUP4 ADD DIV SWAP1 POP SWAP2 SWAP1 POP JUMP JUMPDEST PUSH0 DUP3 DUP3 SHL SWAP1 POP SWAP3 SWAP2 POP POP JUMP JUMPDEST PUSH0 PUSH1 0x8 DUP4 MUL PUSH2 0xBE9 PUSH32 0xFFFFFFFFFFFFFFFFFFFFFFFFFFFFFFFFFFFFFFFFFFFFFFFFFFFFFFFFFFFFFFFF DUP3 PUSH2 0xBAE JUMP JUMPDEST PUSH2 0xBF3 DUP7 DUP4 PUSH2 0xBAE JUMP JUMPDEST SWAP6 POP DUP1 NOT DUP5 AND SWAP4 POP DUP1 DUP7 AND DUP5 OR SWAP3 POP POP POP SWAP4 SWAP3 POP POP POP JUMP JUMPDEST PUSH0 DUP2 SWAP1 POP SWAP2 SWAP1 POP JUMP JUMPDEST PUSH0 PUSH2 0xC2E PUSH2 0xC29 PUSH2 0xC24 DUP5 PUSH2 0x6EF JUMP JUMPDEST PUSH2 0xC0B JUMP JUMPDEST PUSH2 0x6EF JUMP JUMPDEST SWAP1 POP SWAP2 SWAP1 POP JUMP JUMPDEST PUSH0 DUP2 SWAP1 POP SWAP2 SWAP1 POP JUMP JUMPDEST PUSH2 0xC47 DUP4 PUSH2 0xC14 JUMP JUMPDEST PUSH2 0xC5B PUSH2 0xC53 DUP3 PUSH2 0xC35 JUMP JUMPDEST DUP5 DUP5 SLOAD PUSH2 0xBBA JUMP JUMPDEST DUP3 SSTORE POP POP POP POP JUMP JUMPDEST PUSH0 SWAP1 JUMP JUMPDEST PUSH2 0xC6F PUSH2 0xC63 JUMP JUMPDEST PUSH2 0xC7A DUP2 DUP5 DUP5 PUSH2 0xC3E JUMP JUMPDEST POP POP POP JUMP JUMPDEST JUMPDEST DUP2 DUP2 LT ISZERO PUSH2 0xC9D JUMPI PUSH2 0xC92 PUSH0 DUP3 PUSH2 0xC67 JUMP JUMPDEST PUSH1 0x1 DUP2 ADD SWAP1 POP PUSH2 0xC80 JUMP JUMPDEST POP POP JUMP JUMPDEST PUSH1 0x1F DUP3 GT ISZERO PUSH2 0xCE2 JUMPI PUSH2 0xCB3 DUP2 PUSH2 0xB8D JUMP JUMPDEST PUSH2 0xCBC DUP5 PUSH2 0xB9F JUMP JUMPDEST DUP2 ADD PUSH1 0x20 DUP6 LT ISZERO PUSH2 0xCCB JUMPI DUP2 SWAP1 POP JUMPDEST PUSH2 0xCDF PUSH2 0xCD7 DUP6 PUSH2 0xB9F JUMP JUMPDEST DUP4 ADD DUP3 PUSH2 0xC7F JUMP JUMPDEST POP POP JUMPDEST POP POP POP JUMP JUMPDEST PUSH0 DUP3 DUP3 SHR SWAP1 POP SWAP3 SWAP2 POP POP JUMP JUMPDEST PUSH0 PUSH2 0xD02 PUSH0 NOT DUP5 PUSH1 0x8 MUL PUSH2 0xCE7 JUMP JUMPDEST NOT DUP1 DUP4 AND SWAP2 POP POP SWAP3 SWAP2 POP POP JUMP JUMPDEST PUSH0 PUSH2 0xD1A DUP4 DUP4 PUSH2 0xCF3 JUMP JUMPDEST SWAP2 POP DUP3 PUSH1 0x2 MUL DUP3 OR SWAP1 POP SWAP3 SWAP2 POP POP JUMP JUMPDEST PUSH2 0xD33 DUP3 PUSH2 0x9F0 JUMP JUMPDEST PUSH8 0xFFFFFFFFFFFFFFFF DUP2 GT ISZERO PUSH2 0xD4C JUMPI PUSH2 0xD4B PUSH2 0x73A JUMP JUMPDEST JUMPDEST PUSH2 0xD56 DUP3 SLOAD PUSH2 0xB5D JUMP JUMPDEST PUSH2 0xD61 DUP3 DUP3 DUP6 PUSH2 0xCA1 JUMP JUMPDEST PUSH0 PUSH1 0x20 SWAP1 POP PUSH1 0x1F DUP4 GT PUSH1 0x1 DUP2 EQ PUSH2 0xD92 JUMPI PUSH0 DUP5 ISZERO PUSH2 0xD80 JUMPI DUP3 DUP8 ADD MLOAD SWAP1 POP JUMPDEST PUSH2 0xD8A DUP6 DUP3 PUSH2 0xD0F JUMP JUMPDEST DUP7 SSTORE POP PUSH2 0xDF1 JUMP JUMPDEST PUSH1 0x1F NOT DUP5 AND PUSH2 0xDA0 DUP7 PUSH2 0xB8D JUMP JUMPDEST PUSH0 JUMPDEST DUP3 DUP2 LT ISZERO PUSH2 0xDC7 JUMPI DUP5 DUP10 ADD MLOAD DUP3 SSTORE PUSH1 0x1 DUP3 ADD SWAP2 POP PUSH1 0x20 DUP6 ADD SWAP5 POP PUSH1 0x20 DUP2 ADD SWAP1 POP PUSH2 0xDA2 JUMP JUMPDEST DUP7 DUP4 LT ISZERO PUSH2 0xDE4 JUMPI DUP5 DUP10 ADD MLOAD PUSH2 0xDE0 PUSH1 0x1F DUP10 AND DUP3 PUSH2 0xCF3 JUMP JUMPDEST DUP4 SSTORE POP JUMPDEST PUSH1 0x1 PUSH1 0x2 DUP9 MUL ADD DUP9 SSTORE POP POP POP JUMPDEST POP POP POP POP POP POP JUMP JUMPDEST PUSH0 PUSH1 0x80 DUP3 ADD SWAP1 POP PUSH2 0xE0C PUSH0 DUP4 ADD DUP8 PUSH2 0xA50 JUMP JUMPDEST DUP2 DUP2 SUB PUSH1 0x20 DUP4 ADD MSTORE PUSH2 0xE1E DUP2 DUP7 PUSH2 0xA18 JUMP JUMPDEST SWAP1 POP PUSH2 0xE2D PUSH1 0x40 DUP4 ADD DUP6 PUSH2 0xA50 JUMP JUMPDEST DUP2 DUP2 SUB PUSH1 0x60 DUP4 ADD MSTORE PUSH2 0xE3F DUP2 DUP5 PUSH2 0xA18 JUMP JUMPDEST SWAP1 POP SWAP6 SWAP5 POP POP POP POP POP JUMP JUMPDEST PUSH32 0x4E6577204F776E65722063616E206E6F74206265207468652073616D65206173 PUSH0 DUP3 ADD MSTORE PUSH32 0x2063757272656E74206F776E6572000000000000000000000000000000000000 PUSH1 0x20 DUP3 ADD MSTORE POP JUMP JUMPDEST PUSH0 PUSH2 0xEA4 PUSH1 0x2E DUP4 PUSH2 0x9FA JUMP JUMPDEST SWAP2 POP PUSH2 0xEAF DUP3 PUSH2 0xE4A JUMP JUMPDEST PUSH1 0x40 DUP3 ADD SWAP1 POP SWAP2 SWAP1 POP JUMP JUMPDEST PUSH0 PUSH1 0x20 DUP3 ADD SWAP1 POP DUP2 DUP2 SUB PUSH0 DUP4 ADD MSTORE PUSH2 0xED1 DUP2 PUSH2 0xE98 JUMP JUMPDEST SWAP1 POP SWAP2 SWAP1 POP JUMP INVALID LOG2 PUSH5 0x6970667358 0x22 SLT KECCAK256 SGT PUSH20 0xCE3ECBDFD8B991D12B96092B5306B29E9A313D5D 0xE5 MSTORE8 DUP6 0xCD 0xCD 0xFB SELFDESTRUCT 0xEF PUSH16 0x2F64736F6C634300081A003300000000 "
				},
				"gasEstimates": {
					"creation": {
						"codeDepositCost": "770800",
						"executionCost": "25068",
						"totalCost": "795868"
					},
					"external": {
						"getUserInfo(address,uint256)": "infinite",
						"hasUserInfo(address,uint256)": "3247",
						"isOwner(address)": "2800",
						"setUserInfo(uint256,string,uint256,string)": "infinite",
						"transferOwnership(address)": "32791"
					}
				},
				"methodIdentifiers": {
					"getUserInfo(address,uint256)": "76e8424f",
					"hasUserInfo(address,uint256)": "5893103a",
					"isOwner(address)": "2f54bf6e",
					"setUserInfo(uint256,string,uint256,string)": "29304714",
					"transferOwnership(address)": "f2fde38b"
				}
			},
			"storageLayout": {
				"storage": [
					{
						"astId": 10,
						"contract": "UserInfo.sol:UserInfo",
						"label": "owner",
						"offset": 0,
						"slot": "0",
						"type": "t_address"
					},
					{
						"astId": 17,
						"contract": "UserInfo.sol:UserInfo",
						"label": "users",
						"offset": 0,
						"slot": "1",
						"type": "t_mapping(t_address,t_mapping(t_uint256,t_struct(PersonalInfo)8_storage))"
					}
				],
				"types": {
					"t_address": {
						"encoding": "inplace",
						"label": "address",
						"numberOfBytes": "20"
					},
					"t_mapping(t_address,t_mapping(t_uint256,t_struct(PersonalInfo)8_storage))": {
						"encoding": "mapping",
						"key": "t_address",
						"label": "mapping(address => mapping(uint256 => struct UserInfo.PersonalInfo))",
						"numberOfBytes": "32",
						"value": "t_mapping(t_uint256,t_struct(PersonalInfo)8_storage)"
					},
					"t_mapping(t_uint256,t_struct(PersonalInfo)8_storage)": {
						"encoding": "mapping",
						"key": "t_uint256",
						"label": "mapping(uint256 => struct UserInfo.PersonalInfo)",
						"numberOfBytes": "32",
						"value": "t_struct(PersonalInfo)8_storage"
					},
					"t_string_storage": {
						"encoding": "bytes",
						"label": "string",
						"numberOfBytes": "32"
					},
					"t_struct(PersonalInfo)8_storage": {
						"encoding": "inplace",
						"label": "struct UserInfo.PersonalInfo",
						"members": [
							{
								"astId": 3,
								"contract": "UserInfo.sol:UserInfo",
								"label": "name",
								"offset": 0,
								"slot": "0",
								"type": "t_string_storage"
							},
							{
								"astId": 5,
								"contract": "UserInfo.sol:UserInfo",
								"label": "age",
								"offset": 0,
								"slot": "1",
								"type": "t_uint256"
							},
							{
								"astId": 7,
								"contract": "UserInfo.sol:UserInfo",
								"label": "email",
								"offset": 0,
								"slot": "2",
								"type": "t_string_storage"
							}
						],
						"numberOfBytes": "96"
					},
					"t_uint256": {
						"encoding": "inplace",
						"label": "uint256",
						"numberOfBytes": "32"
					}
				}
			},
			"userdoc": {
				"kind": "user",
				"methods": {},
				"version": 1
			}
		}
	}
}