{
	"data": {
		"bytecode": {
			"linkReferences": {},
			"object": "6080604052348015600e575f80fd5b506108a48061001c5f395ff3fe608060405234801561000f575f80fd5b5060043610610034575f3560e01c80635d8d158514610038578063ec35122214610058575b5f80fd5b610040610074565b60405161004f93929190610373565b60405180910390f35b610072600480360381019061006d919061051d565b610206565b005b60605f60605f805f3373ffffffffffffffffffffffffffffffffffffffff1673ffffffffffffffffffffffffffffffffffffffff1681526020019081526020015f206040518060600160405290815f820180546100d0906105d2565b80601f01602080910402602001604051908101604052809291908181526020018280546100fc906105d2565b80156101475780601f1061011e57610100808354040283529160200191610147565b820191905f5260205f20905b81548152906001019060200180831161012a57829003601f168201915b505050505081526020016001820154815260200160028201805461016a906105d2565b80601f0160208091040260200160405190810160405280929190818152602001828054610196906105d2565b80156101e15780601f106101b8576101008083540402835291602001916101e1565b820191905f5260205f20905b8154815290600101906020018083116101c457829003601f168201915b5050505050815250509050805f01518160200151826040015193509350935050909192565b6040518060600160405280848152602001838152602001828152505f803373ffffffffffffffffffffffffffffffffffffffff1673ffffffffffffffffffffffffffffffffffffffff1681526020019081526020015f205f820151815f019081610270919061079f565b50602082015181600101556040820151816002019081610290919061079f565b509050503373ffffffffffffffffffffffffffffffffffffffff167f700c69e4a45efdf819b2fce2200109907c25185a3fc6ce638f0f829c50a3dfd38484846040516102de93929190610373565b60405180910390a2505050565b5f81519050919050565b5f82825260208201905092915050565b8281835e5f83830152505050565b5f601f19601f8301169050919050565b5f61032d826102eb565b61033781856102f5565b9350610347818560208601610305565b61035081610313565b840191505092915050565b5f819050919050565b61036d8161035b565b82525050565b5f6060820190508181035f83015261038b8186610323565b905061039a6020830185610364565b81810360408301526103ac8184610323565b9050949350505050565b5f604051905090565b5f80fd5b5f80fd5b5f80fd5b5f80fd5b7f4e487b71000000000000000000000000000000000000000000000000000000005f52604160045260245ffd5b61040582610313565b810181811067ffffffffffffffff82111715610424576104236103cf565b5b80604052505050565b5f6104366103b6565b905061044282826103fc565b919050565b5f67ffffffffffffffff821115610461576104606103cf565b5b61046a82610313565b9050602081019050919050565b828183375f83830152505050565b5f61049761049284610447565b61042d565b9050828152602081018484840111156104b3576104b26103cb565b5b6104be848285610477565b509392505050565b5f82601f8301126104da576104d96103c7565b5b81356104ea848260208601610485565b91505092915050565b6104fc8161035b565b8114610506575f80fd5b50565b5f81359050610517816104f3565b92915050565b5f805f60608486031215610534576105336103bf565b5b5f84013567ffffffffffffffff811115610551576105506103c3565b5b61055d868287016104c6565b935050602061056e86828701610509565b925050604084013567ffffffffffffffff81111561058f5761058e6103c3565b5b61059b868287016104c6565b9150509250925092565b7f4e487b71000000000000000000000000000000000000000000000000000000005f52602260045260245ffd5b5f60028204905060018216806105e957607f821691505b6020821081036105fc576105fb6105a5565b5b50919050565b5f819050815f5260205f209050919050565b5f6020601f8301049050919050565b5f82821b905092915050565b5f6008830261065e7fffffffffffffffffffffffffffffffffffffffffffffffffffffffffffffffff82610623565b6106688683610623565b95508019841693508086168417925050509392505050565b5f819050919050565b5f6106a361069e6106998461035b565b610680565b61035b565b9050919050565b5f819050919050565b6106bc83610689565b6106d06106c8826106aa565b84845461062f565b825550505050565b5f90565b6106e46106d8565b6106ef8184846106b3565b505050565b5b81811015610712576107075f826106dc565b6001810190506106f5565b5050565b601f8211156107575761072881610602565b61073184610614565b81016020851015610740578190505b61075461074c85610614565b8301826106f4565b50505b505050565b5f82821c905092915050565b5f6107775f198460080261075c565b1980831691505092915050565b5f61078f8383610768565b9150826002028217905092915050565b6107a8826102eb565b67ffffffffffffffff8111156107c1576107c06103cf565b5b6107cb82546105d2565b6107d6828285610716565b5f60209050601f831160018114610807575f84156107f5578287015190505b6107ff8582610784565b865550610866565b601f19841661081586610602565b5f5b8281101561083c57848901518255600182019150602085019450602081019050610817565b868310156108595784890151610855601f891682610768565b8355505b6001600288020188555050505b50505050505056fea2646970667358221220e2df88d124b01b166b779473dfb29f3b7b5bf169a38ca310f45b8f97f8ff271964736f6c634300081a0033",
			"opcodes": "PUSH1 0x80 PUSH1 0x40 MSTORE CALLVALUE DUP1 ISZERO PUSH1 0xE JUMPI PUSH0 DUP1 REVERT JUMPDEST POP PUSH2 0x8A4 DUP1 PUSH2 0x1C PUSH0 CODECOPY PUSH0 RETURN INVALID PUSH1 0x80 PUSH1 0x40 MSTORE CALLVALUE DUP1 ISZERO PUSH2 0xF JUMPI PUSH0 DUP1 REVERT JUMPDEST POP PUSH1 0x4 CALLDATASIZE LT PUSH2 0x34 JUMPI PUSH0 CALLDATALOAD PUSH1 0xE0 SHR DUP1 PUSH4 0x5D8D1585 EQ PUSH2 0x38 JUMPI DUP1 PUSH4 0xEC351222 EQ PUSH2 0x58 JUMPI JUMPDEST PUSH0 DUP1 REVERT JUMPDEST PUSH2 0x40 PUSH2 0x74 JUMP JUMPDEST PUSH1 0x40 MLOAD PUSH2 0x4F SWAP4 SWAP3 SWAP2 SWAP1 PUSH2 0x373 JUMP JUMPDEST PUSH1 0x40 MLOAD DUP1 SWAP2 SUB SWAP1 RETURN JUMPDEST PUSH2 0x72 PUSH1 0x4 DUP1 CALLDATASIZE SUB DUP2 ADD SWAP1 PUSH2 0x6D SWAP2 SWAP1 PUSH2 0x51D JUMP JUMPDEST PUSH2 0x206 JUMP JUMPDEST STOP JUMPDEST PUSH1 0x60 PUSH0 PUSH1 0x60 PUSH0 DUP1 PUSH0 CALLER PUSH20 0xFFFFFFFFFFFFFFFFFFFFFFFFFFFFFFFFFFFFFFFF AND PUSH20 0xFFFFFFFFFFFFFFFFFFFFFFFFFFFFFFFFFFFFFFFF AND DUP2 MSTORE PUSH1 0x20 ADD SWAP1 DUP2 MSTORE PUSH1 0x20 ADD PUSH0 KECCAK256 PUSH1 0x40 MLOAD DUP1 PUSH1 0x60 ADD PUSH1 0x40 MSTORE SWAP1 DUP2 PUSH0 DUP3 ADD DUP1 SLOAD PUSH2 0xD0 SWAP1 PUSH2 0x5D2 JUMP JUMPDEST DUP1 PUSH1 0x1F ADD PUSH1 0x20 DUP1 SWAP2 DIV MUL PUSH1 0x20 ADD PUSH1 0x40 MLOAD SWAP1 DUP2 ADD PUSH1 0x40 MSTORE DUP1 SWAP3 SWAP2 SWAP1 DUP2 DUP2 MSTORE PUSH1 0x20 ADD DUP3 DUP1 SLOAD PUSH2 0xFC SWAP1 PUSH2 0x5D2 JUMP JUMPDEST DUP1 ISZERO PUSH2 0x147 JUMPI DUP1 PUSH1 0x1F LT PUSH2 0x11E JUMPI PUSH2 0x100 DUP1 DUP4 SLOAD DIV MUL DUP4 MSTORE SWAP2 PUSH1 0x20 ADD SWAP2 PUSH2 0x147 JUMP JUMPDEST DUP3 ADD SWAP2 SWAP1 PUSH0 MSTORE PUSH1 0x20 PUSH0 KECCAK256 SWAP1 JUMPDEST DUP2 SLOAD DUP2 MSTORE SWAP1 PUSH1 0x1 ADD SWAP1 PUSH1 0x20 ADD DUP1 DUP4 GT PUSH2 0x12A JUMPI DUP3 SWAP1 SUB PUSH1 0x1F AND DUP3 ADD SWAP2 JUMPDEST POP POP POP POP POP DUP2 MSTORE PUSH1 0x20 ADD PUSH1 0x1 DUP3 ADD SLOAD DUP2 MSTORE PUSH1 0x20 ADD PUSH1 0x2 DUP3 ADD DUP1 SLOAD PUSH2 0x16A SWAP1 PUSH2 0x5D2 JUMP JUMPDEST DUP1 PUSH1 0x1F ADD PUSH1 0x20 DUP1 SWAP2 DIV MUL PUSH1 0x20 ADD PUSH1 0x40 MLOAD SWAP1 DUP2 ADD PUSH1 0x40 MSTORE DUP1 SWAP3 SWAP2 SWAP1 DUP2 DUP2 MSTORE PUSH1 0x20 ADD DUP3 DUP1 SLOAD PUSH2 0x196 SWAP1 PUSH2 0x5D2 JUMP JUMPDEST DUP1 ISZERO PUSH2 0x1E1 JUMPI DUP1 PUSH1 0x1F LT PUSH2 0x1B8 JUMPI PUSH2 0x100 DUP1 DUP4 SLOAD DIV MUL DUP4 MSTORE SWAP2 PUSH1 0x20 ADD SWAP2 PUSH2 0x1E1 JUMP JUMPDEST DUP3 ADD SWAP2 SWAP1 PUSH0 MSTORE PUSH1 0x20 PUSH0 KECCAK256 SWAP1 JUMPDEST DUP2 SLOAD DUP2 MSTORE SWAP1 PUSH1 0x1 ADD SWAP1 PUSH1 0x20 ADD DUP1 DUP4 GT PUSH2 0x1C4 JUMPI DUP3 SWAP1 SUB PUSH1 0x1F AND DUP3 ADD SWAP2 JUMPDEST POP POP POP POP POP DUP2 MSTORE POP POP SWAP1 POP DUP1 PUSH0 ADD MLOAD DUP2 PUSH1 0x20 ADD MLOAD DUP3 PUSH1 0x40 ADD MLOAD SWAP4 POP SWAP4 POP SWAP4 POP POP SWAP1 SWAP2 SWAP3 JUMP JUMPDEST PUSH1 0x40 MLOAD DUP1 PUSH1 0x60 ADD PUSH1 0x40 MSTORE DUP1 DUP5 DUP2 MSTORE PUSH1 0x20 ADD DUP4 DUP2 MSTORE PUSH1 0x20 ADD DUP3 DUP2 MSTORE POP PUSH0 DUP1 CALLER PUSH20 0xFFFFFFFFFFFFFFFFFFFFFFFFFFFFFFFFFFFFFFFF AND PUSH20 0xFFFFFFFFFFFFFFFFFFFFFFFFFFFFFFFFFFFFFFFF AND DUP2 MSTORE PUSH1 0x20 ADD SWAP1 DUP2 MSTORE PUSH1 0x20 ADD PUSH0 KECCAK256 PUSH0 DUP3 ADD MLOAD DUP2 PUSH0 ADD SWAP1 DUP2 PUSH2 0x270 SWAP2 SWAP1 PUSH2 0x79F JUMP JUMPDEST POP PUSH1 0x20 DUP3 ADD MLOAD DUP2 PUSH1 0x1 ADD SSTORE PUSH1 0x40 DUP3 ADD MLOAD DUP2 PUSH1 0x2 ADD SWAP1 DUP2 PUSH2 0x290 SWAP2 SWAP1 PUSH2 0x79F JUMP JUMPDEST POP SWAP1 POP POP CALLER PUSH20 0xFFFFFFFFFFFFFFFFFFFFFFFFFFFFFFFFFFFFFFFF AND PUSH32 0x700C69E4A45EFDF819B2FCE2200109907C25185A3FC6CE638F0F829C50A3DFD3 DUP5 DUP5 DUP5 PUSH1 0x40 MLOAD PUSH2 0x2DE SWAP4 SWAP3 SWAP2 SWAP1 PUSH2 0x373 JUMP JUMPDEST PUSH1 0x40 MLOAD DUP1 SWAP2 SUB SWAP1 LOG2 POP POP POP JUMP JUMPDEST PUSH0 DUP2 MLOAD SWAP1 POP SWAP2 SWAP1 POP JUMP JUMPDEST PUSH0 DUP3 DUP3 MSTORE PUSH1 0x20 DUP3 ADD SWAP1 POP SWAP3 SWAP2 POP POP JUMP JUMPDEST DUP3 DUP2 DUP4 MCOPY PUSH0 DUP4 DUP4 ADD MSTORE POP POP POP JUMP JUMPDEST PUSH0 PUSH1 0x1F NOT PUSH1 0x1F DUP4 ADD AND SWAP1 POP SWAP2 SWAP1 POP JUMP JUMPDEST PUSH0 PUSH2 0x32D DUP3 PUSH2 0x2EB JUMP JUMPDEST PUSH2 0x337 DUP2 DUP6 PUSH2 0x2F5 JUMP JUMPDEST SWAP4 POP PUSH2 0x347 DUP2 DUP6 PUSH1 0x20 DUP7 ADD PUSH2 0x305 JUMP JUMPDEST PUSH2 0x350 DUP2 PUSH2 0x313 JUMP JUMPDEST DUP5 ADD SWAP2 POP POP SWAP3 SWAP2 POP POP JUMP JUMPDEST PUSH0 DUP2 SWAP1 POP SWAP2 SWAP1 POP JUMP JUMPDEST PUSH2 0x36D DUP2 PUSH2 0x35B JUMP JUMPDEST DUP3 MSTORE POP POP JUMP JUMPDEST PUSH0 PUSH1 0x60 DUP3 ADD SWAP1 POP DUP2 DUP2 SUB PUSH0 DUP4 ADD MSTORE PUSH2 0x38B DUP2 DUP7 PUSH2 0x323 JUMP JUMPDEST SWAP1 POP PUSH2 0x39A PUSH1 0x20 DUP4 ADD DUP6 PUSH2 0x364 JUMP JUMPDEST DUP2 DUP2 SUB PUSH1 0x40 DUP4 ADD MSTORE PUSH2 0x3AC DUP2 DUP5 PUSH2 0x323 JUMP JUMPDEST SWAP1 POP SWAP5 SWAP4 POP POP POP POP JUMP JUMPDEST PUSH0 PUSH1 0x40 MLOAD SWAP1 POP SWAP1 JUMP JUMPDEST PUSH0 DUP1 REVERT JUMPDEST PUSH0 DUP1 REVERT JUMPDEST PUSH0 DUP1 REVERT JUMPDEST PUSH0 DUP1 REVERT JUMPDEST PUSH32 0x4E487B7100000000000000000000000000000000000000000000000000000000 PUSH0 MSTORE PUSH1 0x41 PUSH1 0x4 MSTORE PUSH1 0x24 PUSH0 REVERT JUMPDEST PUSH2 0x405 DUP3 PUSH2 0x313 JUMP JUMPDEST DUP2 ADD DUP2 DUP2 LT PUSH8 0xFFFFFFFFFFFFFFFF DUP3 GT OR ISZERO PUSH2 0x424 JUMPI PUSH2 0x423 PUSH2 0x3CF JUMP JUMPDEST JUMPDEST DUP1 PUSH1 0x40 MSTORE POP POP POP JUMP JUMPDEST PUSH0 PUSH2 0x436 PUSH2 0x3B6 JUMP JUMPDEST SWAP1 POP PUSH2 0x442 DUP3 DUP3 PUSH2 0x3FC JUMP JUMPDEST SWAP2 SWAP1 POP JUMP JUMPDEST PUSH0 PUSH8 0xFFFFFFFFFFFFFFFF DUP3 GT ISZERO PUSH2 0x461 JUMPI PUSH2 0x460 PUSH2 0x3CF JUMP JUMPDEST JUMPDEST PUSH2 0x46A DUP3 PUSH2 0x313 JUMP JUMPDEST SWAP1 POP PUSH1 0x20 DUP2 ADD SWAP1 POP SWAP2 SWAP1 POP JUMP JUMPDEST DUP3 DUP2 DUP4 CALLDATACOPY PUSH0 DUP4 DUP4 ADD MSTORE POP POP POP JUMP JUMPDEST PUSH0 PUSH2 0x497 PUSH2 0x492 DUP5 PUSH2 0x447 JUMP JUMPDEST PUSH2 0x42D JUMP JUMPDEST SWAP1 POP DUP3 DUP2 MSTORE PUSH1 0x20 DUP2 ADD DUP5 DUP5 DUP5 ADD GT ISZERO PUSH2 0x4B3 JUMPI PUSH2 0x4B2 PUSH2 0x3CB JUMP JUMPDEST JUMPDEST PUSH2 0x4BE DUP5 DUP3 DUP6 PUSH2 0x477 JUMP JUMPDEST POP SWAP4 SWAP3 POP POP POP JUMP JUMPDEST PUSH0 DUP3 PUSH1 0x1F DUP4 ADD SLT PUSH2 0x4DA JUMPI PUSH2 0x4D9 PUSH2 0x3C7 JUMP JUMPDEST JUMPDEST DUP2 CALLDATALOAD PUSH2 0x4EA DUP5 DUP3 PUSH1 0x20 DUP7 ADD PUSH2 0x485 JUMP JUMPDEST SWAP2 POP POP SWAP3 SWAP2 POP POP JUMP JUMPDEST PUSH2 0x4FC DUP2 PUSH2 0x35B JUMP JUMPDEST DUP2 EQ PUSH2 0x506 JUMPI PUSH0 DUP1 REVERT JUMPDEST POP JUMP JUMPDEST PUSH0 DUP2 CALLDATALOAD SWAP1 POP PUSH2 0x517 DUP2 PUSH2 0x4F3 JUMP JUMPDEST SWAP3 SWAP2 POP POP JUMP JUMPDEST PUSH0 DUP1 PUSH0 PUSH1 0x60 DUP5 DUP7 SUB SLT ISZERO PUSH2 0x534 JUMPI PUSH2 0x533 PUSH2 0x3BF JUMP JUMPDEST JUMPDEST PUSH0 DUP5 ADD CALLDATALOAD PUSH8 0xFFFFFFFFFFFFFFFF DUP2 GT ISZERO PUSH2 0x551 JUMPI PUSH2 0x550 PUSH2 0x3C3 JUMP JUMPDEST JUMPDEST PUSH2 0x55D DUP7 DUP3 DUP8 ADD PUSH2 0x4C6 JUMP JUMPDEST SWAP4 POP POP PUSH1 0x20 PUSH2 0x56E DUP7 DUP3 DUP8 ADD PUSH2 0x509 JUMP JUMPDEST SWAP3 POP POP PUSH1 0x40 DUP5 ADD CALLDATALOAD PUSH8 0xFFFFFFFFFFFFFFFF DUP2 GT ISZERO PUSH2 0x58F JUMPI PUSH2 0x58E PUSH2 0x3C3 JUMP JUMPDEST JUMPDEST PUSH2 0x59B DUP7 DUP3 DUP8 ADD PUSH2 0x4C6 JUMP JUMPDEST SWAP2 POP POP SWAP3 POP SWAP3 POP SWAP3 JUMP JUMPDEST PUSH32 0x4E487B7100000000000000000000000000000000000000000000000000000000 PUSH0 MSTORE PUSH1 0x22 PUSH1 0x4 MSTORE PUSH1 0x24 PUSH0 REVERT JUMPDEST PUSH0 PUSH1 0x2 DUP3 DIV SWAP1 POP PUSH1 0x1 DUP3 AND DUP1 PUSH2 0x5E9 JUMPI PUSH1 0x7F DUP3 AND SWAP2 POP JUMPDEST PUSH1 0x20 DUP3 LT DUP2 SUB PUSH2 0x5FC JUMPI PUSH2 0x5FB PUSH2 0x5A5 JUMP JUMPDEST JUMPDEST POP SWAP2 SWAP1 POP JUMP JUMPDEST PUSH0 DUP2 SWAP1 POP DUP2 PUSH0 MSTORE PUSH1 0x20 PUSH0 KECCAK256 SWAP1 POP SWAP2 SWAP1 POP JUMP JUMPDEST PUSH0 PUSH1 0x20 PUSH1 0x1F DUP4 ADD DIV SWAP1 POP SWAP2 SWAP1 POP JUMP JUMPDEST PUSH0 DUP3 DUP3 SHL SWAP1 POP SWAP3 SWAP2 POP POP JUMP JUMPDEST PUSH0 PUSH1 0x8 DUP4 MUL PUSH2 0x65E PUSH32 0xFFFFFFFFFFFFFFFFFFFFFFFFFFFFFFFFFFFFFFFFFFFFFFFFFFFFFFFFFFFFFFFF DUP3 PUSH2 0x623 JUMP JUMPDEST PUSH2 0x668 DUP7 DUP4 PUSH2 0x623 JUMP JUMPDEST SWAP6 POP DUP1 NOT DUP5 AND SWAP4 POP DUP1 DUP7 AND DUP5 OR SWAP3 POP POP POP SWAP4 SWAP3 POP POP POP JUMP JUMPDEST PUSH0 DUP2 SWAP1 POP SWAP2 SWAP1 POP JUMP JUMPDEST PUSH0 PUSH2 0x6A3 PUSH2 0x69E PUSH2 0x699 DUP5 PUSH2 0x35B JUMP JUMPDEST PUSH2 0x680 JUMP JUMPDEST PUSH2 0x35B JUMP JUMPDEST SWAP1 POP SWAP2 SWAP1 POP JUMP JUMPDEST PUSH0 DUP2 SWAP1 POP SWAP2 SWAP1 POP JUMP JUMPDEST PUSH2 0x6BC DUP4 PUSH2 0x689 JUMP JUMPDEST PUSH2 0x6D0 PUSH2 0x6C8 DUP3 PUSH2 0x6AA JUMP JUMPDEST DUP5 DUP5 SLOAD PUSH2 0x62F JUMP JUMPDEST DUP3 SSTORE POP POP POP POP JUMP JUMPDEST PUSH0 SWAP1 JUMP JUMPDEST PUSH2 0x6E4 PUSH2 0x6D8 JUMP JUMPDEST PUSH2 0x6EF DUP2 DUP5 DUP5 PUSH2 0x6B3 JUMP JUMPDEST POP POP POP JUMP JUMPDEST JUMPDEST DUP2 DUP2 LT ISZERO PUSH2 0x712 JUMPI PUSH2 0x707 PUSH0 DUP3 PUSH2 0x6DC JUMP JUMPDEST PUSH1 0x1 DUP2 ADD SWAP1 POP PUSH2 0x6F5 JUMP JUMPDEST POP POP JUMP JUMPDEST PUSH1 0x1F DUP3 GT ISZERO PUSH2 0x757 JUMPI PUSH2 0x728 DUP2 PUSH2 0x602 JUMP JUMPDEST PUSH2 0x731 DUP5 PUSH2 0x614 JUMP JUMPDEST DUP2 ADD PUSH1 0x20 DUP6 LT ISZERO PUSH2 0x740 JUMPI DUP2 SWAP1 POP JUMPDEST PUSH2 0x754 PUSH2 0x74C DUP6 PUSH2 0x614 JUMP JUMPDEST DUP4 ADD DUP3 PUSH2 0x6F4 JUMP JUMPDEST POP POP JUMPDEST POP POP POP JUMP JUMPDEST PUSH0 DUP3 DUP3 SHR SWAP1 POP SWAP3 SWAP2 POP POP JUMP JUMPDEST PUSH0 PUSH2 0x777 PUSH0 NOT DUP5 PUSH1 0x8 MUL PUSH2 0x75C JUMP JUMPDEST NOT DUP1 DUP4 AND SWAP2 POP POP SWAP3 SWAP2 POP POP JUMP JUMPDEST PUSH0 PUSH2 0x78F DUP4 DUP4 PUSH2 0x768 JUMP JUMPDEST SWAP2 POP DUP3 PUSH1 0x2 MUL DUP3 OR SWAP1 POP SWAP3 SWAP2 POP POP JUMP JUMPDEST PUSH2 0x7A8 DUP3 PUSH2 0x2EB JUMP JUMPDEST PUSH8 0xFFFFFFFFFFFFFFFF DUP2 GT ISZERO PUSH2 0x7C1 JUMPI PUSH2 0x7C0 PUSH2 0x3CF JUMP JUMPDEST JUMPDEST PUSH2 0x7CB DUP3 SLOAD PUSH2 0x5D2 JUMP JUMPDEST PUSH2 0x7D6 DUP3 DUP3 DUP6 PUSH2 0x716 JUMP JUMPDEST PUSH0 PUSH1 0x20 SWAP1 POP PUSH1 0x1F DUP4 GT PUSH1 0x1 DUP2 EQ PUSH2 0x807 JUMPI PUSH0 DUP5 ISZERO PUSH2 0x7F5 JUMPI DUP3 DUP8 ADD MLOAD SWAP1 POP JUMPDEST PUSH2 0x7FF DUP6 DUP3 PUSH2 0x784 JUMP JUMPDEST DUP7 SSTORE POP PUSH2 0x866 JUMP JUMPDEST PUSH1 0x1F NOT DUP5 AND PUSH2 0x815 DUP7 PUSH2 0x602 JUMP JUMPDEST PUSH0 JUMPDEST DUP3 DUP2 LT ISZERO PUSH2 0x83C JUMPI DUP5 DUP10 ADD MLOAD DUP3 SSTORE PUSH1 0x1 DUP3 ADD SWAP2 POP PUSH1 0x20 DUP6 ADD SWAP5 POP PUSH1 0x20 DUP2 ADD SWAP1 POP PUSH2 0x817 JUMP JUMPDEST DUP7 DUP4 LT ISZERO PUSH2 0x859 JUMPI DUP5 DUP10 ADD MLOAD PUSH2 0x855 PUSH1 0x1F DUP10 AND DUP3 PUSH2 0x768 JUMP JUMPDEST DUP4 SSTORE POP JUMPDEST PUSH1 0x1 PUSH1 0x2 DUP9 MUL ADD DUP9 SSTORE POP POP POP JUMPDEST POP POP POP POP POP POP JUMP INVALID LOG2 PUSH5 0x6970667358 0x22 SLT KECCAK256 0xE2 0xDF DUP9 0xD1 0x24 0xB0 SHL AND PUSH12 0x779473DFB29F3B7B5BF169A3 DUP13 LOG3 LT DELEGATECALL JUMPDEST DUP16 SWAP8 0xF8 SELFDESTRUCT 0x27 NOT PUSH5 0x736F6C6343 STOP ADDMOD BYTE STOP CALLER "
		},
		"gasEstimates": {
			"creation": {
				"codeDepositCost": "442400",
				"executionCost": "478",
				"totalCost": "442878"
			},
			"external": {
				"getUserInfo()": "infinite",
				"setUserInfo(string,uint256,string)": "infinite"
			}
		},
		"methodIdentifiers": {
			"getUserInfo()": "5d8d1585",
			"setUserInfo(string,uint256,string)": "ec351222"
		}
	},
	"abi": [
		{
			"anonymous": false,
			"inputs": [
				{
					"indexed": true,
					"internalType": "address",
					"name": "user",
					"type": "address"
				},
				{
					"indexed": false,
					"internalType": "string",
					"name": "name",
					"type": "string"
				},
				{
					"indexed": false,
					"internalType": "uint256",
					"name": "age",
					"type": "uint256"
				},
				{
					"indexed": false,
					"internalType": "string",
					"name": "email",
					"type": "string"
				}
			],
			"name": "UserInfoUpdated",
			"type": "event"
		},
		{
			"inputs": [],
			"name": "getUserInfo",
			"outputs": [
				{
					"internalType": "string",
					"name": "",
					"type": "string"
				},
				{
					"internalType": "uint256",
					"name": "",
					"type": "uint256"
				},
				{
					"internalType": "string",
					"name": "",
					"type": "string"
				}
			],
			"stateMutability": "view",
			"type": "function"
		},
		{
			"inputs": [
				{
					"internalType": "string",
					"name": "_name",
					"type": "string"
				},
				{
					"internalType": "uint256",
					"name": "_age",
					"type": "uint256"
				},
				{
					"internalType": "string",
					"name": "_email",
					"type": "string"
				}
			],
			"name": "setUserInfo",
			"outputs": [],
			"stateMutability": "nonpayable",
			"type": "function"
		}
	]
}